:020000040000FA
:1000000080312F28033008007E1480318B1A0B1D9D
:100010000D288F31172780312D288B190B1C1428A0
:100020008E31D52680312D280B1F2D282100921DC1
:1000300022282000921D22287B088A007A080A00C4
:1000400080312D282100911D2D282000911D2D2863
:100050004A088A0049080A0080317E100900803170
:100060003128F801F901FA01FB01FC01FD01203002
:1000700084000030850038308F3111277E10200039
:10008000803142288F31DB278031220090108E1082
:100090000C128C112000CC010E30D8000630D90093
:1000A0008E31E1268031C9302000D8000130D900DE
:1000B0008E31E72680318B170B1783319F238031D8
:1000C000640020000D186728C101C10A15298D1888
:1000D0006C28C201C20A15290D197128C301C30A6F
:1000E00015298D197628C401C40A15294103031D59
:1000F0009C2806303D02031C9A2864303D020318F8
:100100009A284C08031D8F28CC01CC0A0830210006
:10011000A00020082000CB00CE01CE0A9A284C0374
:10012000031D992802302100A00020082000CC00E7
:100130008628CC01BD01C1014203031DCB28063036
:100140003E02031CC92864303E020318C9284C0330
:10015000031DB42851088631C02680312100A0003B
:1001600020082000D100C12802304C06031DC928F8
:1001700050088531282580312100A000200820006A
:10018000D00008302100A00020082000CB00CE01C4
:10019000CE0ABE01C2014303031DFA2806303F0206
:1001A000031CF82864303F020318F8284C03031D91
:1001B000E32851088731452780312100A00020081D
:1001C0002000D100F02802304C06031DF82850080A
:1001D0008531512580312100A00020082000D00069
:1001E00008302100A00020082000CB00CE01CE0A5C
:1001F000BF01C3014403031D152906304002031C3F
:100200001329643040020318132950082100A0006C
:1002100020082000E600510886318E26803120001B
:10022000CC01CE01CE0AC001C4014C08031D7129C6
:100230004E03031D6028E2014F302100A00020087A
:100240002000E3000930E4000030E500683083312D
:10025000DA238031200051082100A0000430A036AC
:10026000890B2F2920080339003E840090300318A1
:10027000013E85000008A10021082000C5005108AA
:100280000F39003E840090300318013E85000008BD
:100290002100A00020082000C60050082100A00076
:1002A0000430A036890B512920080F39003E840004
:1002B00090300318013E85000008A10021082000AD
:1002C000C70050080F39003E840090300318013EEB
:1002D000850000082100A00020082000C800CE01F1
:1002E00060284E03031D602822008C17200051084F
:1002F0002100A0000430A036890B7B292008033997
:10030000003E840090300318013E85000008A100E3
:1003100021082000C50051080F39003E84009030AC
:100320000318013E850000082100A00020082000DD
:10033000C60050082100A0000430A036890B9D297A
:1003400020080F39003E840090300318013E8500DC
:100350000008A10021082000C70050080F39003E06
:10036000840090300318013E850000082100A000A1
:1003700020082000C8004D0803196F294C03031DF5
:10038000C32946146F2902304C06031D6F294814F7
:100390006F290330F0007008FC057C08453E86009C
:1003A0008701010822008F00E1298C119014F729A0
:1003B00090108E14F7298E100C16F7290C128C153C
:1003C000F7297C08F000F1017108003A0319E929C6
:1003D000F7297008003A0319D529013A0319D829D9
:1003E000033A0319DB29013A0319DE29F729013001
:1003F000F0007008FC07200041080319072AC830E4
:100400003D020318072A0130F0007008BD074208BA
:100410000319122AC8303E020318122A0130F000D4
:100420007008BE07430803191D2AC8303F0203188D
:100430001D2A0130F0007008BF07440803190800A6
:10044000C8304002031808000130F0007008C007EF
:1004500008007E1C2D2A82317B2A8F31742782313D
:1004600003183C2A602A8F313C2708008F3144272B
:1004700008008F315427080020003A08D900590895
:10048000E1001130203E86008701413F8A00403F55
:100490000A0082312000DA00DB015B08003A031910
:1004A000522A392A5A08013A0319392A033A0319F8
:1004B000332A013A0319362A073A0319392A392A05
:1004C0002000A0110230203E86008701403F8400BA
:1004D0008501810A00088E31FF268231013020001B
:1004E000A3020030A43B23082404031D792A06300C
:1004F0000800033008008F312C27823103188A2A24
:10050000AD2A8E319F2608008E31A32608008E3139
:10051000AB26080020003A08F0007008D90011301E
:10052000203E86008701413F8A00403F0A00823119
:10053000F100F2017208003A03199F2A872A710814
:10054000013A0319872A033A0319812A013A031948
:10055000842A073A0319872A872A2000A01102302B
:10056000203E86008701403F84008501810A000803
:100570008E31CB26823101302000A3020030A43B13
:1005800023082404031DC62A06300800033008008F
:100590007E1CCC2A83315A2B8E3191268231200049
:1005A000D800220886008701580881000130D80051
:1005B0005808A2070130A3020030A43B23082404FA
:1005C0000319E62A8E31BF26053008002015EE2AD1
:1005D0008F316C2708008F31642708003708D80056
:1005E0005808E1000B30203E86008701413F8A0019
:1005F000403F0A0082312000D900DA015A08003A4F
:100600000319032BEB2A5908013A0319EB2A033A81
:100610000319E82A013A0319E82A073A0319EB2AD1
:10062000EB2A08002000DB00DC01DC0AA018582BB4
:100630005B08DA005A08A1002010A014A0110E30A7
:10064000DA005A08A900F430A7000130A8002015EC
:10065000ED30AB000E30AC00B701ED30AD000E3028
:10066000AE00B801ED30AF000E30B000B901ED3092
:10067000B1000E30B200BA01F330B3000E30B40056
:10068000BB018F31A52783318E317F2683316A30BC
:100690002000D8000E30D9008F3105278331D430A7
:1006A0002000D8000430D9008F310B272000DC0156
:1006B0005C0808008E3176268331F0002000220885
:1006C00086008701700881000130F0007008A207E1
:1006D0000130A3020030A43B230824040319742B27
:1006E0008E3197260530080020157C2B8E31B726D9
:1006F00008008E31B32608003708F0007008D900D2
:100700000B30203E86008701413F8A00403F0A00AF
:100710008331F100F2017208003A0319902B792B12
:100720007108013A0319792B033A0319762B013A20
:100730000319762B073A0319792B792B080002301D
:100740002000EC003830EB00AD30890BA52BEB0B13
:10075000A52BEC0BA52B2000E2014F30EB006B0822
:10076000E3000930E4000030E50068308331DA232B
:1007700083312000CF1F0800CF01D001D101D20169
:10078000D301D30AD401D40AD501D50A1930EB001C
:100790006B08D6001030EB006B08D7004F30EB0031
:1007A0006B08E2000930E3000030E4006830853176
:1007B000792508002000E7006308E6006608EA00E3
:1007C0006508E9006408E800200067088331122307
:1007D0008331003A0319E42B71302000DD0006302C
:1007E000DE006830E6006608DF008731DD278331F0
:1007F00001302000D8000030D90062308731B427A2
:100800008331F9302000DD000E30DE00DF0187315A
:10081000D02783318E31C726833187312F2783310B
:10082000013A031D08000D2C7E1C182C8431492C24
:1008300020002015252C8F314C2708008E3194265E
:10084000033008008F31542708003708D8005808B3
:10085000E1000B30203E86008701413F8A00403F87
:100860000A0084312000D900DA015A08003A03193D
:100870003A2C222C5908013A0319222C033A031965
:100880001B2C013A03191B2C073A03191E2C222C8E
:10089000080020002015562C8E31A72608008E3126
:1008A0007926033008008E31AB2608003708F000A7
:1008B0007008D9000B30203E86008701413F8A0036
:1008C000403F0A008431F100F2017208003A031936
:1008D0006A2C532C7108013A0319532C033A03195B
:1008E0004C2C013A03194C2C073A03194F2C532C6A
:1008F00008007E1C7D2C8431FE2C2000A0110230CB
:10090000D8005808AA008A2C8F314C2708008F3154
:10091000542708003908D8005808E1000F30203E5D
:1009200086008701413F8A00403F0A008431200051
:10093000D900DA015A08003A03199F2C872C59086C
:10094000023A0319842C013A0319842C872C0800DD
:10095000220090018F018C018D018E010D3021004C
:10096000900067308C00FF308D00FD308E008F01CD
:1009700023008F0120308D000530900027308C003F
:10098000240090018D012100951722009D01270070
:100990001612151214165F302000D8000E30D90040
:1009A0008E31E1268B1508007E1CD82C85319F2DB9
:1009B0008E317F2684312000A01DE82C8F317427D2
:1009C0008431031CE82C0F302000DC005C08A900F7
:1009D00020002908DC00DD01DC35DD0D32305C074C
:1009E000840086305D3D8500013F8A00003F0A009B
:1009F00084312000DE005E08A90008002000A0115C
:100A00000230F0007008AA000B2D8E31A7260800D6
:100A10008E31AB2608003908F0007008D9000F307D
:100A2000203E86008701413F8A00403F0A00853111
:100A3000F100F2017208003A03191F2D082D710808
:100A4000023A0319052D013A0319052D082D080056
:100A50002000D80009305806031D302D1030080042
:100A600019305806031D362D20300800293058064D
:100A7000031D3C2D3030080039305806031D422D2F
:100A80004030080049305806031D482D50300800FA
:100A900059305806031D4E2D003008005808013EFD
:100AA00008002000D8005808031D582D59300800B0
:100AB00010305806031D5E2D0930080020305806FE
:100AC000031D642D1930080030305806031D6A2DAF
:100AD0002930080040305806031D702D39300800B9
:100AE00050305806031D762D493008005808FF3E47
:100AF00008002000E50020006508833112238531BD
:100B0000003A03197B2D20006408D9006308D8003F
:100B100062088731B4278531F9302000DD000E30BE
:100B2000DE00DF018731D02785318E31C726853140
:100B300087312F278531013A031D0800982D8E310A
:100B40007C2685312000A01DAF2D8F312C278531CB
:100B5000031CAF2D0F30F30073082000A900200004
:100B60002908F300F401F335F40D323073078400E3
:100B70008630743D8500013F8A00003F0A008531C0
:100B8000F50075082000A90008002000DC005808C6
:100B900059040319DC2D5C352B3E8600870158086B
:100BA000C03F5908C13F5A08DB005C08373E860049
:100BB00087015B08810008005C352B3E86008701B9
:100BC000ED30C03F0E30C13F5C08373E86008701E4
:100BD00081010800F400700871040319002E7435B7
:100BE0002B3E860087017008C03F7108C13F720824
:100BF000F3007408373E86008701730881000800FF
:100C000074352B3E86008701ED30C03F0E30C13F6A
:100C10007408373E860087018101080020004C08D7
:100C2000031D1E2E031022008C1F0314031C1B2EF9
:100C300022008C17252E22008C13252E4D08031917
:100C4000232ECD01252ECD01CD0A2000CE01CE0AC6
:100C50004B08031908000130CB024B08031D0800A4
:100C6000CC010800F7340734E7340F34BA340F34BA
:100C700029340234C834023491340F341434043427
:100C80003C340F3444340F344C340F3454340F3468
:100C90005C340F3464340F346C340F34AF340F349D
:100CA000793404342000E000E101E10A20186E2EBE
:100CB0002014E10160080319602EA901A90A642E1D
:100CC0000230DF005F08A9008E31852686318F3122
:100CD0009B27863103186E2E8F31D02720006108A4
:100CE00008007E1C752E8631A82E20006108860023
:100CF0008701403FD800413FD9006108023E86008D
:100D0000870101088731B427863100302000DD00DB
:100D1000DE00DF018731DD27023008002000E80017
:100D2000CF01D00166087F39E7006708D100680865
:100D30003F39E7006708D2004F30E7006708E2005C
:100D40000430E3000030E400683085317925080084
:100D50002000590886008701403FF000413FF10024
:100D60005908023E8600870101088731C227863173
:100D70000030F500F600F7018731EA27023008005D
:100D80002000D80009305806031DC82E1030080076
:100D900019305806031DCE2E203008002330580687
:100DA000031DD42E003008005808013E08007E1CA8
:100DB000DB2E8731702F02302000D8000030D900A0
:100DC00061088731B427863100302000DD00DE0065
:100DD000DF018731DD27023008007E1CF12E8731CC
:100DE000812F01302000D8000030D9006108873100
:100DF000B427863100302000DD00DE00DF018731BE
:100E0000DD27023008007E1C072F8731922F01302A
:100E10002000D8000030D90061088731B42787311D
:100E200000302000DD00DE00DF018731DD270430E7
:100E300008007E1C1D2F8731A32F02302000D80010
:100E40000030D90061088731B42787310030200095
:100E5000DD00DE00DF018731DD27043008002000DF
:100E6000D901D90A2018432FA010FF30D800580804
:100E7000A1008E317F2687318E31822620002A08FC
:100E8000D8005808D900590808002000D800580890
:100E9000031D4C2F2330080010305806031D522F1D
:100EA0000930080020305806031D582F193008005B
:100EB0005808FF3E080021001508C0391738950072
:100EC0008330200095008330DA005A08FD000B11B2
:100ED0008B166030D8000E30D9008E31E72608001E
:100EE0000230F0000030F100200059088731C2279D
:100EF00087310030F500F600F7018731EA2702302C
:100F000008000130F0000030F1002000590887315E
:100F1000C22787310030F500F600F7018731EA2754
:100F2000023008000130F0000030F10020005908C4
:100F30008731C22787310030F500F600F70187318D
:100F4000EA27043008000230F0000030F1002000F1
:100F500059088731C22787310030F500F600F701C4
:100F60008731EA27043008002000DB00201D08003C
:100F70005B08DA005A08A2005908A4005808A30028
:100F800020110800F3002000201D08007308F20063
:100F90007208A2007108A4007008A30020110800C4
:100FA00020005E08D9005D08D8005F08E0006008F6
:100FB000DA0002308531C525080020005E08D9001E
:100FC0005D08D8005F08E0006008DA000030853175
:100FD000C52508007608F1007508F00077082000A4
:100FE000D8005808F20000308531EA2508007E1C40
:100FF000FB2F8E31D02E20002010AA010E300800C9
:101CBE000800080008000800013008000530080080
:101CCE002000921108008E31672608002400961419
:101CDE00080024001615080024009615080024009C
:101CEE00110808002000911508002000911108002D
:101CFE0020009111080021009111080024001614F3
:101D0E00080024009614080024001615080024006C
:101D1E0096150800240011080800200091150800EF
:101D2E0024009612161608002400961616160800A1
:101D3E008E316D26013008008E316D26023008007E
:101D4E008E316D26013008008E317026003008006D
:101D5E008E319726053008008E319B260A300800FA
:101D6E008E319B26093008001230210097000800A2
:101D7E002400961216160800240096161616080051
:101D8E000030863152260800F000700824009100C1
:101D9E00080020002010AA010E3008002700161E91
:101DAE0008008F31F32708002000A0118E31732612
:101DBE000430080020005908EE005808ED00080015
:101DCE0020005908F9005808F80008007E1CF12E72
:101DDE008E31632E013008007E1CF72E8E31652E5B
:101DEE00053008007E1CFD2E8031022803300800CD
:101DFE002000D8005808240091000800200059083F
:101E0E00FB005808FA00080020005908CA005808BC
:101E1E00C9000800640080010131890B122F0034C3
:101E2E000B117D08200095008F317D2708008E3123
:101E3E00612620002010AA010E3008002000A015F7
:101E4E0021358E31CB26033008002400160E890C66
:101E5E00890C0139F000700C08002000A015031445
:101E6E00210D8E31CB26053008007E1C402F8E3181
:101E7E009F2E8E318826013008007E1C482F8E3111
:101E8E00A32E8E318826023008007E1C502F8E31F4
:101E9E00A72E8E318826013008007E1C582F8E31D9
:101EAE00AB2E8E318B26003008007E1C602F8E31BB
:101EBE00AF2E8E31BF26053008007E1C682F8E3166
:101ECE00B32E8E31C3260A3008007E1C702F8E3141
:101EDE00B72E8E31C326093008002400160E890C49
:101EEE00890C01392000D800580C080078087904B4
:101EFE000319080079088A0078080A008F31080053
:101F0E0070302100990098012200960121001A1BC1
:101F1E0008008D2F7E1C952F8E31DB2E2000A011F8
:101F2E008E318E26043008002100110C2000D800BE
:101F3E00D80C580C0139D900590C08002400951AF8
:101F4E00080094012830950096014F309200080049
:101F5E007E1CB32F8F311E2F8E3162262000201053
:101F6E00AA010E3008007E1CBE2F8F31252F2000B7
:101F7E00A01521358E31FF2603300800200091195F
:101F8E000800200091190800A0300032890BCC2FD8
:101F9E00C82F2000201C080000308F31C5278F313C
:101FAE008431D4248F31D02F8431A8248F318F31B6
:101FBE0087278F318E31BB268F3187315B27080003
:101FCE007E1CEB2F8F31342F2000A0150314210D12
:101FDE008E31FF260530080020006D086E040319AF
:101FEE00FD2F6E088A006D080A008F312700161229
:101FFE000800FC346034DA34F2346634B634BE345D
:06200E00E034FE34F6345C
:020000040001F9
:04000E005CFFCFFFC5
:00000001FF
