:020000040000FA
:1000000080314428033008007E1480318B1E09287B
:100010000A2812280B1D0D280E2812288C31AB241B
:10002000803142288B1D152816281E280B1C1928E4
:100030001A281E288C31D324803142280B1F2128F6
:10004000222842282100921D262827283228200015
:10005000921D2B282C2832287B088A007A080A0057
:10006000803142282100911D36283728422820005F
:10007000911D3B283C2842282F088A002E080A00A0
:10008000803142287E10090080314628F801F901AC
:10009000FA01FB01FC01FD012030840000308500E5
:1000A0001D308C319E248031A030840000308500CA
:1000B0001D308C319E2480317E10200080316028DC
:1000C0008E3144268031220090108E100C128C113B
:1000D0002000B1010030BD000730BE008C316E241D
:1000E000803182302000BD000230BE008C3174248B
:1000F00080318B170B178431D724803164002000A6
:100100000D18832884288728A401A40A5D298D1846
:100110008A288B288E28A501A50A5D290D1991280A
:1001200092289528A601A60A5D298D199828992854
:100130009C28A701A70A5D292403031DA028A12844
:10014000CF2806302002031CA628A728CD2864301B
:1001500020020318AC28AD28CD283108031DB12892
:10016000B228BD280230D2005208B1000830D200B7
:100170005208B000B301B30ACD2802303106031D86
:10018000C228C328CC280330D2005208B10008305E
:10019000D2005208B000BA28B101A001A401250381
:1001A000031DD328D428062906302102031CD92890
:1001B000DA280429643021020318DF28E028042902
:1001C00002303106031DE528E628F52836088F3170
:1001D000302780312000D2005208B6000830D2000B
:1001E0005208B000B301B30A042903303106031DDD
:1001F000FA28FB28042935088531FE2580312000A6
:10020000D2005208B500EE28A101A5012603031D66
:100210000A290B293D2906302202031C1029112925
:100220003B29643022020318162917293B29023082
:100230003106031D1C291D292C2936088F3114274E
:1002400080312000D2005208B6000830D200520897
:10025000B000B301B30A3B2903303106031D312935
:1002600032293B2935088631672680312000D200AB
:100270005208B5002529A201A6012703031D412923
:1002800042295D2906302302031C472948295A299F
:100290006430230203184D294E295A293508D2000B
:1002A0005208CB0036088E31F92680312000B1018A
:1002B000B301B30AA301A7015D293108031D612918
:1002C0006229C2293303031D662967297E28C701D5
:1002D0003430D2005208C8000930C9000030CA00CA
:1002E000683085311525803120003608D200043071
:1002F000D236890B782952080339203E8400903089
:100300000318013E85000008D3005308A8003608F2
:100310000F39203E840090300318013E850000080C
:10032000D2005208A9003508D2000430D236890B19
:10033000962952080F39203E840090300318013E60
:1003400085000008D3005308AA0035080F39203E65
:10035000840090300318013E85000008D200520846
:10036000AB00B3010F303405D20007305206031D35
:10037000BA29BB297F2AB101B10A0330D200520841
:10038000B0007E283103031DC629C729262A33035E
:10039000031DCB29CC297F2A22008C130D308731F5
:1003A000DC27803120003E08C6003D08C5008431AE
:1003B0009024803120004608AD004508AC002D088F
:1003C000D3002C08D2005308D200D3010F305205BD
:1003D000D40000305305D5002030540784009030FD
:1003E000553D85000008D6005608A8002D08D3000A
:1003F0002C08D2000430D336D20C890BFB290F30E5
:100400005205D40000305305D50020305407840035
:100410009030553D850000080138D6005608A900E7
:100420000F302C05D20000302D05D30020305207AC
:1004300084009030533D85000008D4005408AA0081
:100440009C30D2005208AB00B3017E283303031D59
:100450002A2A2B2A7F2A22008C1720003608D20055
:100460000430D236890B312A52080339203E8400E9
:1004700090300318013E85000008D3005308A800FF
:1004800036080F39203E840090300318013E850065
:100490000008D2005208A9003508D2000430D23634
:1004A000890B4F2A52080F39203E840090300318E0
:1004B000013E85000008D3005308AA0035080F3913
:1004C000203E840090300318013E85000008D200D1
:1004D0005208AB00320803196E2A6F2A242A023010
:1004E0003106031D742A752A772A2914242A033019
:1004F0003106031D7C2A7D2A242A2B14242A7E28D7
:10050000803144280330F0007008FC057C08283E48
:1005100086008701010822008F009A2A8C1190140E
:10052000B02A90108E14B02A8E100C16B02A0C121D
:100530008C15B02A7C08F000F1017108003A03190B
:10054000A22AB02A7008003A03198E2A013A031928
:10055000912A033A0319942A013A0319972AB02AD7
:100560000130F0007008FC07200024080319B92AA4
:10057000BA2AC42AC83020020318BF2AC02AC42AB3
:100580000130F0007008A00725080319C82AC92AFD
:10059000D32AC83021020318CE2ACF2AD32A013009
:1005A000F0007008A10726080319D72AD82AE22AE2
:1005B000C83022020318DD2ADE2AE22A0130F000C8
:1005C0007008A20727080319E62AE72AF12AC8308B
:1005D00023020318EC2AED2AF12A0130F0007008FA
:1005E000A30708007E1CF62A83314C2B8C31E524AE
:1005F0008231031CFC2AFD2A2F2B0A2B8C31F72475
:1006000082314B2B8D31002582314B2B8D311225C0
:1006100082314B2B21003A082000BE003E08C60064
:100620001130A03E86008701413F8A00403F0A000A
:1006300083312000BF00C0014008003A0319212B7C
:10064000062B3F08013A0319062B033A0319FE2A29
:10065000013A0319022B073A0319062B062B210036
:10066000A0110230A03E86008701403F8400850132
:10067000810A00088C318C24823101302100A302D0
:100680000030A43B23082404031D472B482B4A2B8E
:1006900006304B2B033008008C31B3248331031C0C
:1006A000522B532B842B602B8C3146248331A02B6F
:1006B0008C314B248331A02B8C3155248331A02BDA
:1006C00021003A08F00070082000BE001130A03E62
:1006D00086008701413F8A00403F0A008331F100D4
:1006E000F2017208003A0319762B5C2B7108013A6B
:1006F00003195C2B033A0319542B013A0319582BA5
:10070000073A03195C2B5C2B2100A0110230A03E9C
:1007100086008701403F84008501810A00088C31F2
:100720003C24833101302100A3020030A43B230884
:100730002404031D9C2B9D2B9F2B0630A02B0330E4
:1007400008007E1CA52B8431452C8C311A24833162
:100750002000BD00210022088600870120003D08FE
:1007600081000130BD003D082100A2070130A30235
:100770000030A43B230824040319BF2BC02BC52B36
:100780008C31342483310530F32B2015CF2B8D3160
:100790002D258331F32B8D3124258331F32B37081D
:1007A0002000BD003D08C6000B30A03E860087013A
:1007B000413F8A00403F0A0083312000BE00BF0154
:1007C0003F08003A0319E52BCB2B3E08013A0319E9
:1007D000CB2B033A0319C72B013A0319C72B073A4E
:1007E0000319CB2BCB2B08002000C000C101C10A8C
:1007F0002100A018FC2BFD2B422C20004008BF003C
:100800003F082100A1002010A014A0110E302000EC
:10081000BF003F082100A900F430A7000130A80064
:1008200020157A30AB000C30AC00B7017A30AD0047
:100830000C30AE00B8017A30AF000C30B000B90116
:100840007A30B1000C30B200BA018030B3000C3005
:10085000B400BB018D317B2583318C310824833179
:1008600020302000BD000C30BE008C31922483313A
:10087000CF302000BD000630BE008C31982483317B
:100880002000C1012000410808008B31FF23843182
:10089000F0002100220886008701700881000130E5
:1008A000F0007008A2070130A3020030A43B230827
:1008B000240403195C2C5D2C622C8C31242484319B
:1008C00005308F2C20156C2C8C31642484318F2CB6
:1008D0008C315F2484318F2C3708F00070082000A1
:1008E000BE000B30A03E86008701413F8A00403F9A
:1008F0000A008431F100F2017208003A0319812CD8
:10090000682C7108013A0319682C033A0319642C06
:10091000013A0319642C073A0319682C682C080063
:100920002000CA01CB01CC01CD01CC2C0A30BD0086
:100930000030BE004608C0004508BF008531C9250B
:10094000843120003D08C7003E08C8004C08C9009B
:100950000130C935FF3E031DA92C4935890AB22C47
:10096000C735C80D890BB02C4708CA044808CB040A
:100970000130CC070030CD3D0A30BD000030BE0054
:100980004608C0004508BF0085315325843120004A
:100990003E08C6003D08C50045084604031DD12C8D
:1009A000D22C962C4B08C6004A08C500080002301D
:1009B0002000D1003830D000AD30890BDD2CD00BB9
:1009C000DD2CD10BDD2C2000C7013430D0005008C5
:1009D000C8000930C9000030CA00683085311525CB
:1009E00084312000B41FF52CF62C142DB401B50170
:1009F000B601B701B801B80AB901B90ABA01BA0A11
:100A00001930D0005008BB001030D0005008BC0096
:100A10003430D0005008C7000930C8000030C90089
:100A2000683087318827843108002000CC004808CE
:100A3000CB004B08CF004A08CE004908CD0020006B
:100A40004C088331F4238531003A0319282D292DD0
:100A50001F2D6B302000C2000F30C3004D30CB0083
:100A60004B08C4008D31A225853101302000BD0026
:100A70000030BE0047308E316D2685318630200033
:100A8000C2000C30C300C4018D31BE2585318C31CC
:100A9000692485318F314D278531013A0319512D54
:100AA000522D4A2D08002000C301C4013D083E0418
:100AB00003195B2D5C2D8B2DC201C20A682D0130FC
:100AC000BD35BE0D890B602D0130C1004108C20744
:100AD000BE1F6B2D6C2D5F2D0130C335C40D890BEE
:100AE0006D2D3E084002031D772D3D083F02031C7B
:100AF0007A2D7B2D802D3D08BF023E08C03B43145C
:100B00000130BE36BD0C890B812D0130C202031DA0
:100B10008A2D8B2D6C2D4408BE004308BD000800B3
:100B20007E1C942D86319B2E21002015A42D8D3105
:100B300009258531C82D8C311D2485310330C82D00
:100B40008D3112258531C82D37082000BD003D08A4
:100B5000C6000B30A03E86008701413F8A00403F1F
:100B60000A0085312000BE00BF013F08003A03198A
:100B7000BA2DA02D3E08013A0319A02D033A0319FE
:100B8000972D013A0319972D073A03199B2DA02D94
:100B9000080020003D083E040319CF2DD02DF92D6B
:100BA000C201C20ADC2D0130BD35BE0D890BD42D2A
:100BB0000130C1004108C207BE1FDF2DE02DD32D3B
:100BC0003E084002031DE62D3D083F02031CE92DAF
:100BD000EA2DEE2D3D08BF023E08C03B0130BE3677
:100BE000BD0C890BEF2D0130C202031DF82DF92D2C
:100BF000E02D4008BE003F08BD0008002000BD00F9
:100C000009303D06031D052E062E082E1030322E0B
:100C100019303D06031D0D2E0E2E102E2030322EC3
:100C200029303D06031D152E162E182E3030322E7B
:100C300039303D06031D1D2E1E2E202E4030322E33
:100C400049303D06031D252E262E282E5030322EEB
:100C500059303D06031D2D2E2E2E302E0030322E03
:100C60003D08013E08007E1C372E87315B2F210096
:100C7000A01102302000BD003D082100AA00482E2E
:100C80008D3109258631662E8D3112258631662EED
:100C900039082000BD003D08C6000F30A03E860088
:100CA0008701413F8A00403F0A0086312000BE0094
:100CB000BF013F08003A03195E2E442E3E08023A57
:100CC0000319402E013A0319402E442E080020003B
:100CD000BD003D08031D6D2E6E2E702E59309A2ECC
:100CE00010303D06031D752E762E782E09309A2E73
:100CF00020303D06031D7D2E7E2E802E19309A2E2B
:100D000030303D06031D852E862E882E29309A2EE2
:100D100040303D06031D8D2E8E2E902E39309A2E9A
:100D200050303D06031D952E962E982E49309A2E52
:100D30003D08FF3E080021002015AB2E8C315024C9
:100D40008631CE2E8C31022486310330CE2E8C316A
:100D500055248631CE2E3708F00070082000BE00E2
:100D60000B30A03E86008701413F8A00403F0A00C9
:100D70008631F100F2017208003A0319C02EA72E45
:100D80007108013A0319A72E033A03199E2E013A5E
:100D900003199E2E073A0319A22EA72E08007E1CC7
:100DA000D32E8F31D62F8C31082486312100A01DFF
:100DB000DA2EDB2EE82E8C31E5248631031CE12E61
:100DC000E22EE82E0F302000C10041082100A900CA
:100DD000210029082000C100C201C135C20D003028
:100DE000410784009030423D8500013F8A00003F6A
:100DF0000A0086312000C30043082100A900080032
:100E000020003108031D052F062F162F0310220086
:100E10008C1F031403180D2F102F22008C17122F74
:100E200022008C132000B301B30A202F32080319CB
:100E30001A2F1B2F1D2FB201122FB201B20A122F2F
:100E400030080319242F252F2D2F0130B002300830
:100E5000031D2B2F2C2F2D2FB101080022009001F4
:100E60008F018C018D018E010D30210090006730C3
:100E70008C00FF308D00FD308E008F0123008F012C
:100E800020308D000530900027308C002400900128
:100E90008D012100951722009D01270016121512C1
:100EA0001416EB302000BD000B30BE008C316E24D8
:100EB00087318B1508002100A0110230F000700866
:100EC000AA006A2F8C3150248731872F8C3155240A
:100ED0008731872F3908F00070082000BE000F30DE
:100EE000A03E86008701413F8A00403F0A008731CB
:100EF000F100F2017208003A03197F2F662F710882
:100F0000023A0319622F013A0319622F662F080073
:100F10002000CA0020004A088331F4238731003AB8
:100F20000319932F942F8A2F20004908BE004808E8
:100F3000BD0047088E316D26873186302000C20003
:100F40000C30C300C4018D31BE2587318C3169243A
:100F500087318F314D278731013A0319B02FB12FD7
:100F6000A92F08002000C500C601C60A21002018CC
:100F7000BA2FBB2FD92F20142000C6014508031912
:100F8000C22FC32FC72F2100A901A90ACC2F0230DD
:100F9000C40044082100A9008C310E2487318D3112
:100FA000362587310318D52FD62FD92F8D31B0256F
:100FB00087312000460808002000C0004008BF001C
:100FC000BF0DBF0D21001D0820003F0683393F06DD
:100FD00021009D001D140D30890BEC2F0000210015
:100FE0009D14F32F640021009D18F72FF82FF22F86
:100FF0001C082000BE0021001B082000BD000800C6
:1017D600080008000800080001300800053008006D
:1017E6002000921108002400961408002400161503
:1017F600080024009615080024001108080020009F
:101806009115080020009111080020009111080090
:1018160021009111080024001614080024009614D3
:101826000800240016150800240096150800240058
:10183600110808002000911508008B31F3238C3124
:10184600080024009612161608002400961616168E
:10185600080081302200970008001230210097000E
:10186600080024009612161608002400961616166E
:101876000800F000700824009100080021002010E4
:10188600AA010E3008008B31F6238C310130080096
:101896008B31F6238C31023008008B31F6238C31E4
:1018A600013008008B31F9238C31003008008C316F
:1018B60024248C31053008008C3128248C310A30E0
:1018C60008008C3128248C3109300800003087311B
:1018D600B2278C31080020003E08D8003D08D7000A
:1018E600080020003E08F9003D08F80008007E1CAC
:1018F6007E2C8B31EF2B013008007E1C842C8B3123
:10190600F12B053008007E1C8A2C8031022803301A
:1019160008002000BD003D082400910008002000BA
:101926003E08FB003D08FA00080020003E08AF0014
:101936003D08AE000800640080010131890B9F2C30
:1019460000342100A0118B31FC238C3104300800B7
:101956000B117D08200095008D314B258C31080038
:101966002400160E890C890C0139F000700C080051
:101976008B31ED238C3121002010AA010E30080096
:101986002100A01521358C313C248C310330080010
:10199600013021009D00E3309E009B019C01080060
:1019A6002700161ED72CD82CDB2C8D31CC258C315C
:1019B60008002100A0150314210D8C313C248C3124
:1019C600053008002400160E890C890C0139200008
:1019D600BD003D0C08007E1CF22C8C31412C2100F0
:1019E6002010AA010E3008007E1CFB2C8C31462CE0
:1019F6008C3111248C31013008007E1C042D8C3171
:101A06004B2C8C3111248D31023008007E1C0D2D9B
:101A16008C31502C8C3111248D31013008007E1C04
:101A2600162D8C31552C8C3114248D310030080044
:101A36007E1C1F2D8C315A2C8C3134248D3105306F
:101A460008007E1C282D8C315F2C8C3138248D317A
:101A56000A3008007E1C312D8C31642C8C313824E0
:101A66008D31093008002100110C2000BD00BD0C8D
:101A76003D0C0139BE003E0C08007E1C442D8C3105
:101A8600A42C2100A0118C3117248D3104300800BC
:101A9600780879040319502D512D562D79088A009E
:101AA60078080A008D3108007030210099009801ED
:101AB6002200960121001A1F612D622D5D2D08005E
:101AC6007E1C672D8C31BB2C8B31EE238D31210092
:101AD6002010AA010E3008007E1C732D8C31C32CF9
:101AE6002100A01521358C318C248D31033008005E
:101AF6002400951A7F2D802D862D9401283095007F
:101B060096014F30920008007E1C8B2D8C31DC2C08
:101B16002100A0150314210D8C318C248D31053044
:101B260008007608F1007508F00077082000BD006F
:101B36003D08F20000308F3189278D3108002000E2
:101B46004308BE004208BD004408C5004508BF0062
:101B560000308F31AF278D310800B82D00308D3120
:101B6600EB258D318631CF268D3121002018BC2DF5
:101B7600BD2DB12D080020004308BE004208BD005F
:101B86004408C5004508BF0002308F31AF278D31AC
:101B960008002000570858040319D22DD32DD82D3C
:101BA60058088A0057080A008D31270016120800C7
:101BB600F3002100201DE02DE12DEA2D7308F2002F
:101BC6007208A2007108A4007008A3002011080082
:101BD60020009119EF2DF02DFB2D2000911DF42DE5
:101BE600F52DF62DFB2DA0300032890BF72DF02DAB
:101BF60008000230F0000030F10020003E088D3170
:101C0600DB258D310030F500F600F7018D31942586
:101C16008D31043008000130F0000030F100200062
:101C26003E088D31DB258E310030F500F600F701D8
:101C36008D3194258E31043008000130F0000030DB
:101C4600F10020003E088D31DB258E310030F50095
:101C5600F600F7018D3194258E31023008000230EE
:101C6600F0000030F10020003E088D31DB258E317A
:101C76000030F500F600F7018D3194258E310230E3
:101C8600080087312E278E318D3157258E318C31C4
:101C960030248E318C312C248E318C31CB248E31F4
:101CA6008E3157268E31080021001508C0391738A5
:101CB60095008330200095008330BF003F08FD006B
:101CC6000B118B16EC30BD000B30BE008C3174242A
:101CD6008E3108002000C0002100201D732E742EB6
:101CE600832E20004008BF003F082100A2002000EC
:101CF6003E082100A40020003D082100A300201179
:101D060008007E1C882E8D31FC2D02302000BD007F
:101D16000030BE0046088E316D268E310030200020
:101D2600C200C300C4018D31A2258E3104300800E3
:101D36007E1C9F2E8E310E2E01302000BD000030FD
:101D4600BE0046088E316D268E3100302000C2005E
:101D5600C300C4018D31A2258E31043008007E1CDB
:101D6600B62E8E31202E01302000BD000030BE0080
:101D760046088E316D268E3100302000C200C30029
:101D8600C4018D31A2258E31023008007E1CCD2E75
:101D96008E31322E02302000BD000030BE004608D3
:101DA6008E316D268E3100302000C200C300C40182
:101DB6008D31A2258E310230080020003E088600B3
:101DC6008701403FF000413FF1003E08023E860099
:101DD600870101088D31DB258E310030F500F600D4
:101DE600F7018D3194258E31023008002000CD0098
:101DF600B401B5014B087F39CC004C08B6004D083C
:101E06003F39CC004C08B7003430CC004C08C70032
:101E16000430C8000030C9006830873188278E3109
:101E260008002000BD003D08031D1A2F1B2F1D2F83
:101E360023302F2F10303D06031D222F232F252F51
:101E460009302F2F20303D06031D2A2F2B2F2D2F33
:101E560019302F2F3D08FF3E08002000BD00093035
:101E66003D06031D372F382F3A2F10304C2F1930CF
:101E76003D06031D3F2F402F422F20304C2F23308D
:101E86003D06031D472F482F4A2F00304C2F3D0893
:101E9600013E08002000BE01BE0A21002018542F72
:101EA600552F682FA010FF302000BD003D082100EF
:101EB600A1008C3108248F318C310B248F31210005
:101EC6002A082000BD003D08BE0020003E0808008C
:101ED6007E1C6F2F8E31E02E20004608860087017B
:101EE600403FBD00413FBE004608023E86008701D6
:101EF60001088E316D268F3100302000C200C300EC
:101F0600C4018D31A2258F3102300800F40070081B
:101F1600710403198F2F902FA12F7435AB3E8600C5
:101F260087017008C03F7108C13F7208F30074084A
:101F3600B73E8600870173088100AE2F7435AB3E2D
:101F4600860087017A30C03F0C30C13F7408B73E27
:101F560086008701810108002000C1003D083E047B
:101F66000319B62FB72FC82F4135AB3E8600870120
:101F76003D08C03F3E08C13F3F08C0004108B73E8C
:101F86008600870140088100D52F4135AB3E86008B
:101F960087017A30C03F0C30C13F4108B73E86000A
:101FA6008701810108008C3105248F312100A01D95
:101FB600DD2FDE2FEA2F8C31B3248F31031CE42F63
:101FC600E52FEA2F0F30F30073082100A900210046
:101FD6002908F300F401F335F40D0030730784008B
:101FE6009030743D8500013F8A00003F0A008F3122
:101FF600F50075082100A9000800EE340C3487347A
:102006000D346F340D34F2340234A13403344034C9
:102016000D3490340534F7340C3400340D3409345F
:102026000D3412340D341B340D3424340D342D3458
:102036000D3463340D3433340634FC346034DA340E
:0E204600F2346634B634BE34E034FE34F63480
:020000040001F9
:04000E005CFFCFFFC5
:00000001FF
