:020000040000FA
:1000000080314428033008007E1480318B1E09287B
:100010000A2812280B1D0D280E2812289431FC24C2
:10002000803142288B1D152816281E280B1C1928E4
:100030001A281E2895311C25803142280B1F2128A3
:10004000222842282100921D262827283228200015
:10005000921D2B282C28322837088A0036080A00DF
:10006000803142282100911D36283728422820005F
:10007000911D3B283C28422835088A0034080A0094
:10008000803142287E10090080314628F901FA01AA
:10009000FB01FC01FD01203084000030850036307A
:1000A0009431EF248031A030840000308500373057
:1000B0009431EF2480317E102000883146280330AF
:1000C000F0007008FB057B08283E860087010108C8
:1000D00022008F0077288C1190148D2890108E1498
:1000E0008D288E100C168D280C128C158D287B08EF
:1000F000F000F1017108003A03197F288D2870087B
:10010000003A03196B28013A03196E28033A0319C0
:100110007128013A031974288D280130F000700805
:10012000FB0720002408031996289728A128C83027
:10013000200203189C289D28A1280130F000700897
:10014000A00725080319A528A628B028C830210231
:100150000318AB28AC28B0280130F0007008A107C4
:1001600026080319B428B528BF28C830220203186E
:10017000BA28BB28BF280130F0007008A207270862
:100180000319C328C428CE28C83023020318C9285D
:10019000CA28CE280130F0007008A307080020000C
:1001A0002C35BD3E86008701403FDC00413FDD002D
:1001B0005C08DE005D08DF00E001E1015E0821006F
:1001C000CD0220005F082100CE3B20006008210006
:1001D000CF3B200061082100D03B20005A082100BD
:1001E000CD0720005B082100CE3D0030CF3DD03D43
:1001F00020002C35BD3E860087015A08C03F5B08B1
:10020000C13F0130AC070030AD3D00302D02083059
:1002100003192C02031C0D290E291029AC01AD0174
:1002200021004D082000DC0021004E082000DD00E8
:1002300021004F082000DE00210050082000DF00D0
:100240000330DF36DE0CDD0CDC0C890B21295D0868
:10025000DB005C08DA0008007E1C30298131DF29D0
:10026000953152258131031C3629372969294429C2
:10027000953164258131852995316D258131852917
:1002800095317F258131852921003A082000D7004A
:100290005708DF001130A03E86008701413F8A00E9
:1002A000403F0A0081312000D800D9015908003AA6
:1002B00003195B2940295808013A03194029033AD8
:1002C00003193829013A03193C29073A031940292F
:1002D00040292100A0110230A03E86008701403F46
:1002E00084008501810A00089431DD2481310130C8
:1002F0002100A3020030A43B23082404031D81290C
:100300008229842906308529033008000230200024
:10031000EA003830E900AD30890B8C29E90B8C29D3
:10032000EA0B8C292000E0014230E9006908E10075
:100330001430E2000030E300683083316A238131F9
:100340002000D11FA429A529C929C201C301C401C4
:10035000C501C601C60AC701C70AC801C80A2030BC
:10036000E9006908C900CA01CB01CC01CD01CE0169
:10037000CC01CD01D101D2014230E9006908E00091
:100380001430E1000030E20068308531F22581311F
:10039000DE29501DCC29CD29DE290E30E90069085F
:1003A000C200C3014230E9006908E0000230E10008
:1003B0000030E20068308531F22581310800953146
:1003C00004258131031CE529E629172AF3299431F4
:1003D0009D248131332A9431A2248131332A9431EE
:1003E000AC248131332A21003A08F0007008200043
:1003F000D6001130A03E86008701413F8A00403F71
:100400000A008231F100F2017208003A0319092A48
:10041000EF297108013A0319EF29033A0319E72973
:10042000013A0319EB29073A0319EF29EF292100B3
:10043000A0110230A03E86008701403F8400850164
:10044000810A000894319324813101302100A302F4
:100450000030A43B23082404031D2F2A302A322A0B
:100460000630332A033008007E1C382A8231D82A0D
:100470009431712482312000D600210022088600A8
:1004800087012000560881000130D600560821005F
:10049000A2070130A3020030A43B2308240403195F
:1004A000522A532A582A94318B2482310530862AC5
:1004B0002015622A95319A258231862A9531912517
:1004C0008231862A37082000D6005608DF000B301C
:1004D000A03E86008701413F8A00403F0A008231EA
:1004E0002000D700D8015808003A0319782A5E2A5C
:1004F0005708013A03195E2A033A03195A2A013AA6
:1005000003195A2A073A03195E2A5E2A08002000B6
:10051000D900DA01DA0A2100A0188F2A902AD52AF8
:1005200020005908D80058082100A1002010A0146C
:10053000A0110E302000D80058082100A900F43086
:10054000A7000130A8002015CB30AB001430AC0060
:10055000B701CB30AD001430AE00B801CB30AF00E6
:100560001430B000B901CB30B1001430B200BA0180
:10057000D130B3001430B400BB019531E82582318D
:1005800094315F24823177302000D6001430D700B8
:100590009431E324823167302000D6000530D70043
:1005A0009431E92482312000DA0120005A08080041
:1005B000943156248231F000210022088600870100
:1005C000700881000130F0007008A2070130A3021A
:1005D0000030A43B230824040319EF2AF02AF52A4B
:1005E00094317B2482310530222B2015FF2A94314F
:1005F000BB248231222B9431B6248231222B37083E
:10060000F00070082000D6000B30A03E8600870165
:10061000413F8A00403F0A008331F100F201720835
:10062000003A0319142BFB2A7108013A0319FB2A1B
:10063000033A0319F72A013A0319F72A073A03196B
:10064000FB2AFB2A08002000E301E401E501E601A2
:100650005F2B0A30D6000030D7005F08D9005E0853
:10066000D8008431CA24833120005608E00057089E
:10067000E1006508E2000130E235FF3E031D3C2B3E
:100680006235890A452BE035E10D890B432B600863
:10069000E3046108E4040130E5070030E63D0A3078
:1006A000D6000030D7005F08D9005E08D80083313B
:1006B000A823833120005708DF005608DE005E08BB
:1006C0005F04031D642B652B292B6408DF0063087E
:1006D000DE0008002000E5006108E4006408E8008E
:1006E0006308E7006208E60020006508823187227F
:1006F0008331003A03197D2B7E2B742B08302000A8
:10070000DB000830DC006630E4006408DD00963170
:100710001B26833101302000D6000030D700603026
:10072000973126278331D7302000DB001430DC00DE
:10073000DD019631372683319431C02483319731DE
:10074000E2278331013A0319A62BA72B9F2B080020
:100750002000DC01DD01560857040319B02BB12B32
:10076000E02BDB01DB0ABD2B0130D635D70D890B21
:10077000B52B0130DA005A08DB07D71FC02BC12B7D
:10078000B42B0130DC35DD0D890BC22B5708590223
:10079000031DCC2B56085802031CCF2BD02BD52B76
:1007A0005608D8025708D93B5C140130D736D60C0E
:1007B000890BD62B0130DB02031DDF2BE02BC12B75
:1007C0005D08D7005C08D600080020003F08031D24
:1007D000EA2BEB2BF82B031022008C1F03140318B9
:1007E000F22BF52B22008C17F72B22008C13012CF7
:1007F00040080319FC2BFD2BFF2BC001012CC0016D
:10080000C00A2000C101C10A3E080319082C092CA6
:10081000112C0130BE023E08031D0F2C102C112C90
:10082000BF013D080319152C162C182C0130BD02F0
:10083000380803191C2C1D2C1F2C0130B80208008D
:100840007E1C242C8531332D21002015342C95312C
:1008500076258431582C9431742484310330582CFB
:1008600095317F258431582C37082000D600560852
:10087000DF000B30A03E86008701413F8A00403FE9
:100880000A0084312000D700D8015808003A031923
:100890004A2C302C5708013A0319302C033A03191B
:1008A000272C013A0319272C073A03192B2C302C3B
:1008B00008002000D7007F30D6005608D705093041
:1008C0005706031D642C652C672C1030912C1930B1
:1008D0005706031D6C2C6D2C6F2C2030912C293069
:1008E0005706031D742C752C772C3030912C393021
:1008F0005706031D7C2C7D2C7F2C4030912C4930D9
:100900005706031D842C852C872C5030912C593090
:100910005706031D8C2C8D2C8F2C0030912C5708E2
:10092000013E08002000D7007F30D6005608D705CA
:100930005708031D9C2C9D2C9F2C5930C92C10301E
:100940005706031DA42CA52CA72C0930C92C203038
:100950005706031DAC2CAD2CAF2C1930C92C3030F0
:100960005706031DB42CB52CB72C2930C92C4030A8
:100970005706031DBC2CBD2CBF2C3930C92C503060
:100980005706031DC42CC52CC72C4930C92C570849
:10099000FF3E08002000560857040319D02CD12C24
:1009A000FA2CDB01DB0ADD2C0130D635D70D890BA3
:1009B000D52C0130DA005A08DB07D71FE02CE12CD8
:1009C000D42C57085902031DE72C56085802031C63
:1009D000EA2CEB2CEF2C5608D8025708D93B0130F3
:1009E000D736D60C890BF02C0130DB02031DF92C15
:1009F000FA2CE12C5908D7005808D60008007E1CB4
:100A0000032D8531C52D2100A01102302000D60014
:100A100056082100AA00142D953176258431322DF7
:100A200095317F258431322D39082000D6005608B3
:100A3000DF000F30A03E86008701413F8A00403F23
:100A40000A0085312000D700D8015808003A031960
:100A50002A2D102D5708023A03190C2D013A0319BB
:100A60000C2D102D080021002015432D9431A724B2
:100A70008531662D9431592485310330662D9431AA
:100A8000AC248531662D3708F00070082000D600B0
:100A90000B30A03E86008701413F8A00403F0A009C
:100AA0008531F100F2017208003A0319582D3F2DEB
:100AB0007108013A03193F2D033A0319362D013A03
:100AC0000319362D073A03193A2D3F2D08007E1CD5
:100AD0006B2D8631462E94315F2485312100A01D77
:100AE000722D732D802D953152258531031C792D62
:100AF0007A2D802D0F302000DA005A082100A9003D
:100B0000210029082000DA00DB01DA35DB0D003096
:100B10005A07840090305B3D8500013F8A00003F0A
:100B20000A0085312000DC005C082100A9000800D3
:100B3000220090018F018C018D018E010D3021006A
:100B4000900067308C007F308D00BD308E008F01AB
:100B500023008F0120308D000530900027308C005D
:100B6000240090018D012100951722009D0127008E
:100B700016121516141642302000D6001430D70075
:100B80009531492585318B1508002100A0110230CF
:100B9000F0007008AA00D42D9431A7248531F12DDE
:100BA0009431AC248531F12D3908F0007008200013
:100BB000D6000F30A03E86008701413F8A00403FAB
:100BC0000A008531F100F2017208003A0319E92D9B
:100BD000D02D7108023A0319CC2D013A0319CC2DFE
:100BE000D02D08002000E300200063088231872216
:100BF0008531003A0319FD2DFE2DF42D20006208E9
:100C0000D7006108D6006008973126278531D73094
:100C10002000DB001430DC00DD0196313726853101
:100C20009431C02485319731E2278531013A031987
:100C30001A2E1B2E132E08002000DE00DF01DF0A13
:100C400021002018242E252E432E20142000DF0101
:100C50005E0803192C2E2D2E312E2100A901A90A80
:100C6000362E0230DD005D082100A9009431652494
:100C700086319531A325863103183F2E402E432E11
:100C800096312926863120005F08080094315C24C3
:100C900086312100A01D4D2E4E2E5A2E9531042551
:100CA0008631031C542E552E5A2E0F30F300730834
:100CB0002100A90021002908F300F401F335F40D07
:100CC0000030730784009030743D8500013F8A0036
:100CD000003F0A008631F50075082100A9000800D0
:100CE0002000E6000B30E5006508C2006408E5005E
:100CF0006508C3006608BF39E5006508C4006408DC
:100D0000031D832E842E892E66080319882E892EB2
:100D10008B2EC317C4174230E5006508E00003308E
:100D2000E1000030E20068308531F22586310800AC
:100D30002000E6000830E5006508C2006408E50010
:100D40006508C3006608BF39E5006508C40064088B
:100D5000031DAB2EAC2EB12E66080319B02EB12E9A
:100D6000B32EC317C4174230E5006508E000033016
:100D7000E1000030E20068308531F225863108005C
:100D80002000DA00560857040319C72EC82ED92EA2
:100D90005A35AB3E860087015608C03F5708C13F11
:100DA0005808D9005A08B73E8600870159088100C3
:100DB000E62E5A35AB3E86008701CB30C03F14305B
:100DC000C13F5A08B73E8600870181010800F40040
:100DD000700871040319ED2EEE2EFF2E7435AB3E14
:100DE000860087017008C03F7108C13F7208F30098
:100DF0007408B73E86008701730881000C2F743594
:100E0000AB3E86008701CB30C03F1430C13F740831
:100E1000B73E86008701810108002000D6003130EE
:100E20005602031C142F152F172F0130312F0930B4
:100E30005606031D1C2F1D2F1F2F1030312F193068
:100E40005606031D242F252F272F2030312F293020
:100E50005606031D2C2F2D2F2F2F3030312F5608E3
:100E6000013E08002000D600023056020318392F38
:100E70003A2F3C2F3130562F10305606031D412F8C
:100E8000422F442F0930562F20305606031D492F7C
:100E90004A2F4C2F1930562F30305606031D512F34
:100EA000522F542F2930562F5608FF3E0800083085
:100EB00023009F0090309D0024309E0040309B0016
:100EC00003309C0000302000D6000030D700953160
:100ED0003725873100302000D6000030D70095310B
:100EE0004025873100302000D6000030D7009531F2
:100EF0002E258731FC0108002000D7005708230069
:100F00009100200056082300930095131513151522
:100F100000308B1B01302000D8008B13553023008C
:100F20009600AA30960095149518972F982F942F15
:100F300015112000580C031C8B1303188B17080085
:100F40002000D9005908D800D80DD80D21001D085F
:100F5000200058068339580621009D001D140D30CD
:100F6000890BB02F000021009D14B72F64002100D1
:100F70009D18BB2FBC2FB62F1C082000D7002100C6
:100F80001B082000D60008002000D7007F30D600C4
:100F90005608D70509305706031DCF2FD02FD22F63
:100FA0001030E42F19305706031DD72FD82FDA2F12
:100FB0002030E42F23305706031DDF2FE02FE22FD0
:100FC0000030E42F5708013E08002000E600C2016F
:100FD000C30164087F39E5006508C40066083F392D
:100FE000E5006508C5004230E5006508E000043012
:100FF000E1000030E20068308531F22587310800D9
:10100000013021009D00E3309E009B019C010800FF
:101010007E1C0C289731C92F20005F0886008701AD
:10102000403FD600413FD7005F08023E860087015F
:10103000010897312627883100302000DB00DC00D2
:10104000DD0196311B268831023008002000D700D0
:101050007F30D6005608D7055708031D30283128A1
:1010600033282330452810305706031D38283928E7
:101070003B280930452820305706031D40284128C9
:101080004328193045285708FF3E0800973110279C
:101090008831220090108E100C128C112000BF019C
:1010A000BC01BB0101309631012688312000EB00E4
:1010B0006B08BA0005303A02031C5F2860286128DB
:1010C000BA01E530D6000330D70095314925883183
:1010D0005F302000D6000030D7009431C52488311D
:1010E0008B170B17813186218831640020000D1881
:1010F0007A287B287E28A401A40A032B8D18812836
:1011000082288528A501A50A032B0D19882889287E
:101110008C28A601A60A032B8D198F2890289328C6
:10112000A701A70A032B2403031D972898283F290A
:1011300006302002031C9D289E283D296430200291
:101140000318A328A4283D293F08031DA828A9287F
:10115000B4280330EB006B08BF001230EB006B08C3
:10116000BE00C101C10A3D2903303F06031DB92855
:10117000BA28C3280430EB006B08BF001230EB0024
:101180006B08BE00B12804303F06031DC828C928DB
:10119000D6280530EB006B08BF001230EB006B085F
:1011A000BE000430EB006B08BD00B12805303F06DF
:1011B000031DDB28DC28E5280630EB006B08BF00A8
:1011C0001230EB006B08BE00B12806303F06031D4D
:1011D000EA28EB28F8280730EB006B08BF00123034
:1011E000EB006B08BE000430EB006B08BD00B128BB
:1011F00007303F06031DFD28FE2807290830EB00B5
:101200006B08BF001230EB006B08BE00B12808303D
:101210003F06031D0C290D291A290930EB006B0824
:10122000BF001230EB006B08BE000430EB006B080F
:10123000BD00B12809303F06031D1F292029292997
:101240000A30EB006B08BF001230EB006B08BE00E9
:10125000B1280A303F06031D2E292F293C290B30C7
:10126000EB006B08BF003A08EB006B08B9001230C6
:10127000EB006B08BE00B128BF01A001A40125034B
:10128000031D43294429E32906302102031C49296F
:101290004A29E1296430210203184F295029E12904
:1012A00003303F06031D5529562965294408873117
:1012B000C42788312000EB006B08C4001230EB001B
:1012C0006B08BE00C101C10AE02904303F06031DBE
:1012D0006A296B29742943088431592488312000F4
:1012E000EB006B08C3005E2905303F06031D79291A
:1012F0007A29832947089631E52688312000EB00BA
:101300006B08C7005E2906303F06031D882989291E
:101310009229460887310D2788312000EB006B08A1
:10132000C6005E2907303F06031D97299829A12989
:101330004B088731C42788312000EB006B08CB00B5
:101340005E2908303F06031DA629A729B0294A08AF
:101350008431592488312000EB006B08CA005E29D3
:1013600009303F06031DB529B629BF294E0887312C
:10137000C42788312000EB006B08CE005E290A30BC
:101380003F06031DC429C529CE294D08843159249F
:1013900088312000EB006B08CD005E290B303F0642
:1013A000031DD329D429E0290130EB006B08B907CC
:1013B00005303906031DDD29DE295E29B9015E29C4
:1013C000BD01A101A5012603031DE729E829832A00
:1013D00006302202031CED29EE29812A6430220204
:1013E0000318F329F429812A03303F06031DF92944
:1013F000FA29092A44088831262088312000EB0088
:101400006B08C4001230EB006B08BE00C101C10ABA
:10141000802A04303F06031D0E2A0F2A182A43088B
:101420008431922488312000EB006B08C300022A2B
:1014300005303F06031D1D2A1E2A272A470896311C
:10144000D02688312000EB006B08C700022A063046
:101450003F06031D2C2A2D2A362A460887313227BB
:1014600088312000EB006B08C600022A07303F06D7
:10147000031D3B2A3C2A452A4B0888312620883107
:101480002000EB006B08CB00022A08303F06031D4A
:101490004A2A4B2A542A4A0884319224883120004F
:1014A000EB006B08CA00022A09303F06031D592AC7
:1014B0005A2A632A4E088831262088312000EB0002
:1014C0006B08CE00022A0A303F06031D682A692AEB
:1014D000722A4D088431922488312000EB006B0879
:1014E000CD00022A0B303F06031D772A782A802A76
:1014F000390803197C2A7D2A022A0130B902022AFE
:10150000BD01A201A6012703031D872A882A032BF8
:1015100006302302031C8D2A8E2A002B64302302FE
:101520000318932A942A002B03303F060319992AA3
:101530009A2AA02A04303F06031D9F2AA02AA92A1E
:101540004308EB006B08E40044088731E527883145
:10155000FC2A05303F06031DAE2AAF2AB42A4708ED
:101560009731B1278831FC2A06303F06031DB92A7E
:10157000BA2ABF2A4608973199278831FC2A0730B2
:101580003F060319C42AC52ACB2A08303F06031D8B
:10159000CA2ACB2AD42A4A08EB006B08E4004B087D
:1015A000863198268831FC2A09303F060319D92A4A
:1015B000DA2AE02A0A303F06031DDF2AE02AE92A58
:1015C0004D08EB006B08E4004E0886317026883128
:1015D000FC2A0B303F06031DEE2AEF2AFC2A3908AD
:1015E000EB006B08BA003908EB006B08D60001303D
:1015F00087317C278831FC2A2000BF01C101C10A44
:10160000A301A701032B3F08031D072B082BEC2B7D
:101610004103031D0C2B0D2BB82F0D1E102B112B6E
:10162000382BE0014230EB006B08E1001030E200A3
:101630000030E300683083316A2388312000511C78
:10164000222B232B252BBC01BC0AD11C282B292B98
:101650002B2BBB01BB0A3C0303192F2B302B352B43
:101660003C03031D342B352B382B9631BD26883196
:1016700020003A03031D3D2B3E2B532B27304206FF
:101680000319432B442B4A2B57304206031D492B89
:101690004A2B532B0630EB006B08BD000230EB00E9
:1016A0006B08BF00B82F02303A06031D582B592B88
:1016B000862B0730420603195E2B5F2B7D2B1730DC
:1016C00042060319642B652B7D2B27304206031934
:1016D0006A2B6B2B7D2B373042060319702B712B35
:1016E0007D2B473042060319762B772B7D2B573005
:1016F0004206031D7C2B7D2B862B0630EB006B08EE
:10170000BD000130EB006B08BF00B82F03303A0674
:10171000031D8B2B8C2B992B273042060319912B01
:10172000922B7D2B57304206031D972B982B992B1C
:101730007D2B04303A06031D9E2B9F2BAE2B55307C
:101740004206031DA42BA52BAE2B0A30EB006B0821
:10175000BD000130EB006B08BF00B82F4408EB0060
:101760000430EB36890BB12B6B080339003E840043
:1017700098300318013E85000008EC006C08A800B2
:1017800044080F39003E840098300318013E85005C
:101790000008EB006B08A9004308EB000430EB36AF
:1017A000890BCF2B6B080739003E84009830031853
:1017B000013E85000008EC006C08AA0043080F39C0
:1017C000003E840098300318013E85000008EB00BD
:1017D0006B08AB00C101B82F3F03031DF02BF12BA9
:1017E000522C4103031DF52BF62BB82F3D0803198E
:1017F000FA2BFB2B502C22008C1320002F08DF002B
:101800002E08DE0083312323883120005F08B100D9
:101810005E08B0003108EC003008EB006C08EB000B
:10182000EC010F306B05ED0000306C05EE00003070
:101830006D07840098306E3D85000008EF006F084A
:10184000A8003108EC003008EB000430EC36EB0C5B
:10185000890B262C0F306B05ED0000306C05EE0077
:1018600000306D07840098306E3D85000008013817
:10187000EF006F08A9000F303005EB000030310594
:10188000EC0000306B07840098306C3D8500000848
:10189000ED006D08AA009C30EB006B08AB00EA2B52
:1018A000BF01B82F02303F06031D572C582CA22C25
:1018B0004103031D5C2C5D2CB82F3D080319612CDE
:1018C000622C502C22008C1320004608EB000430C0
:1018D000EB36890B682C6B080339003E8400983086
:1018E0000318013E85000008EC006C08A8004608BB
:1018F0000F39003E840098300318013E850000082F
:10190000EB006B08A9004708EB000430EB36890BAD
:10191000862C6B080139003E840098300318013E84
:1019200085000008EC006C08AA0047080F39003E4B
:10193000840098300318013E85000008EB006B0816
:10194000AB00EA2B03303F06031DA72CA82CF32C79
:101950004103031DAC2CAD2CB82F22008C172000A6
:101960004408EB000430EB36890BB32C6B080339C9
:10197000003E840098300318013E85000008EC000A
:101980006C08A80044080F39003E84009830031802
:10199000013E85000008EB006B08A9004308EB003E
:1019A0000430EB36890BD12C6B080739003E8400DC
:1019B00098300318013E85000008EC006C08AA006E
:1019C00043080F39003E840098300318013E85001B
:1019D0000008EB006B08AB0040080319F02CF12C59
:1019E000EA2B2914EA2B04303F06031DF82CF92CAE
:1019F000442D4103031DFD2CFE2CB82F22008C1713
:101A000020004408EB000430EB36890B042D6B08F2
:101A10000339003E840098300318013E8500000819
:101A2000EC006C08A80044080F39003E8400983090
:101A30000318013E85000008EB006B08A90043086D
:101A4000EB000430EB36890B222D6B080739003E82
:101A5000840098300318013E85000008EC006C08F3
:101A6000AA0043080F39003E840098300318013E55
:101A700085000008EB006B08AB0040080319412DFE
:101A8000422DEA2B2B14EA2B05303F06031D492D6E
:101A90004A2DAD2D4103031D4E2D4F2DB82F3D086E
:101AA0000319532D542D682D22008C137A302000F9
:101AB000EB006B08A8007A30EB006B08A900CC3073
:101AC000EB006B08AA00E430EB006B08AB00EA2BDC
:101AD00022008C1320004608EB000430EB36890B03
:101AE0006E2D6B080339003E840098300318013EC8
:101AF00085000008EC006C08A80046080F39003E7D
:101B0000840098300318013E85000008EB006B0844
:101B1000A9004708EB000430EB36890B8C2D6B08CD
:101B20000139003E840098300318013E850000080A
:101B3000EC006C08AA0047080F39003E840098307A
:101B40000318013E85000008EB006B08AB0040085D
:101B50000319AB2DAC2DEA2B422D06303F06031D99
:101B6000B22DB32DFD2D4103031DB72DB82DB82F78
:101B700022008C1320004608EB000430EB36890B62
:101B8000BE2D6B080339003E840098300318013ED7
:101B900085000008EC006C08A80046080F39003EDC
:101BA000840098300318013E85000008EB006B08A4
:101BB000A9004708EB000430EB36890BDC2D6B08DD
:101BC0000139003E840098300318013E850000086A
:101BD000EC006C08AA0047080F39003E84009830DA
:101BE0000318013E85000008EB006B08AB004008BD
:101BF0000319FB2DFC2DEA2BF12C07303F06031DAA
:101C0000022E032E632E4103031D072E082EB82F2C
:101C10003D0803190C2E0D2E1E2E22008C13EE30C3
:101C20002000EB006B08A8001C30EB006B08A9003B
:101C3000AA016030EB006B08AB00EA2B22008C1786
:101C400020004B08EB000430EB36890B242E6B0888
:101C50000339003E840098300318013E85000008D7
:101C6000EC006C08A8004B080F39003E8400983047
:101C70000318013E85000008EB006B08A9004A0824
:101C8000EB000430EB36890B422E6B080739003E1F
:101C9000840098300318013E85000008EC006C08B1
:101CA000AA004A080F39003E840098300318013E0C
:101CB00085000008EB006B08AB0040080319612E9B
:101CC000622EEA2BF12C08303F06031D682E692E88
:101CD000B32E4103031D6D2E6E2EB82F22008C17DC
:101CE00020004B08EB000430EB36890B742E6B0898
:101CF0000339003E840098300318013E8500000837
:101D0000EC006C08A8004B080F39003E84009830A6
:101D10000318013E85000008EB006B08A9004A0883
:101D2000EB000430EB36890B922E6B080739003E2E
:101D3000840098300318013E85000008EC006C0810
:101D4000AA004A080F39003E840098300318013E6B
:101D500085000008EB006B08AB0040080319B12EAA
:101D6000B22EEA2B422D09303F06031DB82EB92EA4
:101D7000192F4103031DBD2EBE2EB82F3D08031998
:101D8000C22EC32ED42E22008C13EE302000EB0086
:101D90006B08A8001C30EB006B08A900AA01DA3020
:101DA000EB006B08AB00EA2B22008C1720004E08DA
:101DB000EB000430EB36890BDA2E6B080339003E5A
:101DC000840098300318013E85000008EC006C0880
:101DD000A8004E080F39003E840098300318013ED9
:101DE00085000008EB006B08A9004D08EB000430EB
:101DF000EB36890BF82E6B080739003E84009830CB
:101E00000318013E85000008EC006C08AA004D088C
:101E10000F39003E840098300318013E8500000809
:101E2000EB006B08AB0040080319172F182FEA2BA3
:101E3000F12C0A303F06031D1E2F1F2F692F41036F
:101E4000031D232F242FB82F22008C1720004E08AB
:101E5000EB000430EB36890B2A2F6B080339003E68
:101E6000840098300318013E85000008EC006C08DF
:101E7000A8004E080F39003E840098300318013E38
:101E800085000008EB006B08A9004D08EB0004304A
:101E9000EB36890B482F6B080739003E84009830D9
:101EA0000318013E85000008EC006C08AA004D08EC
:101EB0000F39003E840098300318013E8500000869
:101EC000EB006B08AB0040080319672F682FEA2B63
:101ED000422D0B303F06031D6E2F6F2FB82F41038D
:101EE000031D732F742FB82F22008C132000390884
:101EF000EB00EC016B08DE006C08DF00833123236C
:101F0000883120005E08ED00EE016D08B0006E081B
:101F1000B1007A30EB006B08A800A9013108EC0091
:101F20003008EB000430EC36EB0C890B932F0F30AC
:101F30006B05ED0000306C05EE0000306D0784008D
:101F400098306E3D85000008EF006F08AA000F3042
:101F50003005EB0000303105EC0000306B078400E9
:101F600098306C3D85000008ED006D08AB00EA2B51
:101F70003C080319BC2FBD2FC42FBC011E30EB0041
:101F80006B08B80022008D1720003B080319C92FE9
:101F9000CA2FD12FBB011E30EB006B08B800220006
:101FA0008D1720003808031DD62FD72FD92F2200D8
:101FB0008D13023020003A060319DF2FE02FEC2F9B
:101FC00003303A060319E52FE62FEC2F04303A06CA
:101FD000031DEB2FEC2F75280D308731A02788319A
:101FE00020005708DB005608DA008031CF20883106
:101FF00020005B08AF005A08AE00752880314428E5
:102000005B3415340E341634DC3415342C3401347E
:1020100034340234AD34153420340434643415348B
:102020006D341534763415347F34153488341534D2
:10203000913415349A341534D0341534FF340434C3
:1028840008000800080008000130080005300800AE
:102894002000921108002400961408002400161544
:1028A40008002400961508002400110808002000E0
:1028B40091150800200091110800200091110800D2
:1028C4002100911108002400161408002400961415
:1028D400080024001615080024009615080024009A
:1028E4001108080020009115080094314A249431FD
:1028F40008002400961216160800240096161616D0
:10290400080081302200970008001430210097004D
:1029140008002400961216160800240096161616AF
:102924000800F00070082400910008002100201025
:10293400AA010E30080094314D249431013008006E
:1029440094314D2494310230080094314D24943153
:10295400013008009431502494310030080094313F
:102964007B2494310530080094317F2494310A305B
:10297400080094317F2494310930080000308631F6
:102984001C269431080020005708FA005608F90064
:1029940008007E1CCF2C9431462C013008007E1C8C
:1029A400D52C9431482C053008007E1CDB2C80315A
:1029B4000228033008002000D600560824009100A5
:1029C400080020005708B7005608B6000800200089
:1029D4005708B5005608B4000800640080010131AE
:1029E400890BF02C00342100A0119431532494312C
:1029F400043008000B117D08200095009531B8259E
:102A0400943108002400160E890C890C0139F00059
:102A1400700C080094314424953121002010AA013F
:102A24000E3008002100A0152135943193249531EE
:102A3400033008002700161E202D212D242D963149
:102A44004526953108002100A0150314210D943169
:102A54009324953105300800200057082100D20046
:102A6400200056082100D10008002000570821004A
:102A7400D600200056082100D50008002000570881
:102A84002100D400200056082100D30008002000B3
:102A940057082100D800200056082100D70008005C
:102AA4002400160E890C890C01392000D600560C1E
:102AB40008007E1C5F2D9431982C21002010AA015F
:102AC4000E3008007E1C682D94319D2C94316824AE
:102AD4009531013008007E1C712D9431A22C943163
:102AE40068249531023008007E1C7A2D9431A72C7D
:102AF400943168249531013008007E1C832D943173
:102B0400AC2C94316B249531003008007E1C8C2D44
:102B14009431B12C94318B249531053008007E1CFE
:102B2400952D9431B62C94318F2495310A300800B8
:102B34007E1C9E2D9431BB2C94318F249531093009
:102B440008002100110C2000D600D60C560C0139C7
:102B5400D700570C08007E1CB12D9431F52C2100B0
:102B6400A01194316E2495310430080079087A0458
:102B74000319BD2DBE2DC32D7A088A0079080A00D9
:102B840095310800703021009900980122009601C7
:102B940021001A1FCE2DCF2DCA2D08007E1CD42D46
:102BA40095310C2D94314524953121002010AA0132
:102BB4000E3008007E1CE02D9531142D2100A01547
:102BC40021359431DD249531033008002400951A11
:102BD400EC2DED2DF32D94012830950096014F3006
:102BE400920008007608F1007508F0007708F800F4
:102BF4007808F20000308631E7269531080020007D
:102C0400D6005608230091001513951315140000DF
:102C140000002300130808007E1C122E9531252D78
:102C24002100A0150314210D9431DD2496310530C3
:102C3400080020005C08D7005B08D6005D08DE00B1
:102C44005E08D80000308631C02696310800312E47
:102C540000309631642696318531672596312100FE
:102C64002018352E362E2A2E080020005C08D700A6
:102C74005B08D6005D08DE005E08D80002308631AD
:102C8400C0269631080021005708580403194B2E1A
:102C94004C2E512E58088A0057080A0096312700F6
:102CA40016120800F3002100201D592E5A2E632EFF
:102CB4007308F2007208A2007108A4007008A3004F
:102CC4002011080020009119682E692E742E20000E
:102CD400911D6D2E6E2E6F2E742EA0300032890B36
:102CE400702E692E08000230F0000030F100200040
:102CF40056089631542696310030F500F600F70157
:102D04009531F4259631043008000130F00000308C
:102D1400F100200056089631542696310030F50013
:102D2400F600F7019531F42596310430080001309E
:102D3400F0000030F10020005608963154269631F8
:102D44000030F500F600F7019531F4259631023094
:102D540008000230F0000030F100200056089631DF
:102D6400542696310030F500F600F7019531F4252C
:102D74009631023008000F302000E4006408E500BA
:102D8400E6016530E4006408E0000230E100003050
:102D9400E20068308531F225963108002000D60023
:102DA400023056020318D72ED82EDA2E1230E42E13
:102DB40010305606031DDF2EE02EE22E0930E42EDD
:102DC4005608FF3E08002000D60009305606031DB1
:102DD400EC2EED2EEF2E1030F92E12305606031D78
:102DE400F42EF52EF72E0130F92E5608013E080078
:102DF40021001508C039173895008330200095004C
:102E04008330D8005808FD000B118B164330D600D0
:102E14001430D7009431C5249631080085319825A3
:102E240097319531C4259731943187249731943162
:102E3400832497318831002097319631FA269731CF
:102E440087315727973108002000D9002100201D21
:102E54002C2F2D2F3C2F20005908D8005808210072
:102E6400A200200057082100A400200056082100D9
:102E7400A300201108007E1C412F9631752E0230CC
:102E84002000D6000030D7005F08973126279731FD
:102E940000302000DB00DC00DD0196311B26973179
:102EA400043008007E1C582F9631872E01302000F4
:102EB400D6000030D7005F089731262797310030BD
:102EC4002000DB00DC00DD0196311B269731043045
:102ED40008007E1C6F2F9631992E01302000D600F9
:102EE4000030D7005F089731262797310030200043
:102EF400DB00DC00DD0196311B269731023008002F
:102F04007E1C862F9631AB2E02302000D600003076
:102F1400D7005F0897312627973100302000DB0067
:102F2400DC00DD0196311B269731023008002000B9
:102F3400E5000430E4006408C20065083F39E40099
:102F44006408C3004230E4006408E0000230E10099
:102F54000030E20068308531F22597310800200006
:102F6400E5000530E4006408C20065089F39E40008
:102F74006408C3004230E4006408E0000230E10069
:102F84000030E20068308531F225973108002000D6
:102F9400560886008701403FF000413FF100560883
:102FA400023E86008701010896315426973100308D
:102FB400F500F600F7019531F42597310230080049
:102FC4002000D701D70A21002018E92FEA2FFD2F6E
:102FD400A010FF302000D60056082100A100943133
:102FE4005F24973194316224973121002A0820000C
:102FF400D6005608D700200057080800FC34603477
:10300400DA34F2346634B634BE34E034FE34F634A2
:020000040001F9
:04000E005CFFCFFFC5
:00000001FF
