:020000040000FA
:1000000080314428033008007E1480318B1E09287B
:100010000A2812280B1D0D280E2812288B310523C3
:10002000803142288B1D152816281E280B1C1928E4
:100030001A281E288B312D23803142280B1F21289E
:10004000222842282100921D262827283228200015
:10005000921D2B282C2832287B088A007A080A0057
:10006000803142282100911D36283728422820005F
:10007000911D3B283C28422845088A0044080A0074
:10008000803142287E10090080314628F801F901AC
:10009000FA01FB01FC01FD012030840000308500E5
:1000A00033308A31F8228031A0308400003085005E
:1000B0001D308A31F82280317E1020008031602886
:1000C0008C319E248031220090108E100C128C11E5
:1000D0002000C7010530D3000F30D4008A31C82278
:1000E0008031DF302000D3000330D4008A31CE22AB
:1000F00080318B170B1786317D26803164002000FC
:100100000D18832884288728B801B80A97298D18E4
:100110008A288B288E28B901B90A97290D199128A8
:1001200092289528BA01BA0A97298D1998289928F2
:100130009C28BB01BB0A97293803031DA028A128CE
:10014000FC2806303402031CA628A728FA286430AD
:1001500034020318AC28AD28FA284708031DB1283B
:10016000B228BD280230E8006808C7000830E8005F
:100170006808C600C901C90AFA2802304706031DEB
:10018000C228C328CC280330E8006808C70008301C
:10019000E8006808C600BA2803304706031DD128C6
:1001A000D228DB280430E8006808C7000830E800DF
:1001B0006808C600BA2804304706031DE028E12875
:1001C000EA280530E8006808C7000830E800680839
:1001D000C600BA2805304706031DEF28F028F92885
:1001E0000A30E8006808C7000830E8006808C60060
:1001F000BA28C701B401B8013903031D0029012938
:10020000332906303502031C0629072931296430B9
:10021000350203180C290D29312902304706031D28
:100220001229132922294C088D318A25803120007A
:10023000E8006808CC000830E8006808C600C9017A
:10024000C90A312903304706031D272928293129E6
:100250004B088731A42780312000E8006808CB00D4
:100260001B29B501B9013A03031D372938296A2929
:1002700006303602031C3D293E29682964303602C7
:10028000031843294429682902304706031D4929D8
:100290004A2959294C088D316E2580312000E8000B
:1002A0006808CC000830E8006808C600C901C90A1F
:1002B000682903304706031D5E295F2968294B081A
:1002C0008F31982780312000E8006808CB00522940
:1002D000B601BA013B03031D6E296F299729063029
:1002E0003702031C742975299429643037020318D6
:1002F0007A297B299429023047060319802981290C
:10030000872903304706031D8629872990294B0832
:10031000E8006808E1004C088D31532580319029B0
:100320002000C701C901C90AB701BB0197294708C5
:10033000031D9B299C29FC294903031DA029A129F0
:100340007E28DD014A30E8006808DE000930DF0061
:100350000030E00068308631BB26803120004C0838
:10036000E8000430E836890BB22968080339203EDA
:10037000840090300318013E85000008E9006908F8
:10038000BC004C080F39203E840090300318013E19
:1003900085000008E8006808BD004B08E80004304C
:1003A000E836890BD02968080F39203E8400903048
:1003B0000318013E85000008E9006908BE004B08EB
:1003C0000F39203E840090300318013E850000085C
:1003D000E8006808BF00C9010F304A05E80007308F
:1003E0006806031DF429F529DC2BC701C70A033071
:1003F000E8006808C6007E284703031D002A012A7A
:10040000682A4903031D052A062A7E2822008C1328
:100410000D308D31E325803120005408D800530879
:10042000D7008531ED25803120005808E0005708BD
:10043000DF0086313626803120006008C3005F0867
:10044000C2004308E9004208E8006908E800E90141
:100450000F306805EA0000306905EB0020306A07BC
:10046000840090306B3D85000008EC006C08BC00F7
:100470004308E9004208E8000430E936E80C890B3B
:100480003D2A0F306805EA0000306905EB00203096
:100490006A07840090306B3D850000080138EC004D
:1004A0006C08BD000F304205E80000304305E9004C
:1004B0002030680784009030693D85000008EA001C
:1004C0006A08BE009C30E8006808BF00C9017E28A9
:1004D00002304706031D6D2A6E2AB92A4903031DFF
:1004E000722A732A7E2822008C1720004C08E8000C
:1004F0000430E836890B792A68080339203E8400E5
:1005000090300318013E85000008E9006908BC002E
:100510004C080F39203E840090300318013E8500BE
:100520000008E8006808BD004B08E8000430E83621
:10053000890B972A68080F39203E840090300318F1
:10054000013E85000008E9006908BE004B080F392C
:10055000203E840090300318013E85000008E8002A
:100560006808BF0048080319B62AB72A662A3D144E
:10057000662A03304706031DBE2ABF2A0A2B4903F9
:10058000031DC32AC42A7E2822008C1720004C0891
:10059000E8000430E836890BCA2A68080339203E8F
:1005A000840090300318013E85000008E9006908C6
:1005B000BC004C080F39203E840090300318013EE7
:1005C00085000008E8006808BD004B08E80004301A
:1005D000E836890BE82A68080F39203E84009030FD
:1005E0000318013E85000008E9006908BE004B08B9
:1005F0000F39203E840090300318013E850000082A
:10060000E8006808BF0048080319072B082B662A72
:100610003F14662A04304706031D0F2B102B5A2B5C
:100620004903031D142B152B7E2822008C17200054
:100630004E08E8000430E836890B1B2B68080339A4
:10064000203E840090300318013E85000008E90038
:100650006908BC004E080F39203E84009030031812
:10066000013E85000008E8006808BD004F08E8006A
:100670000430E836890B392B68080F39203E840096
:1006800090300318013E85000008E9006908BE00AB
:100690004F080F39203E840090300318013E85003A
:1006A0000008E8006808BF0048080319582B592BB8
:1006B000662A082B05304706031D5F2B602BAA2BEB
:1006C0004903031D642B652B7E2822008C17200014
:1006D0004E08E8000430E836890B6B2B68080339B4
:1006E000203E840090300318013E85000008E90098
:1006F0006908BC004E080F39203E84009030031872
:10070000013E85000008E8006808BD004F08E800C9
:100710000430E836890B892B68080F39203E8400A5
:1007200090300318013E85000008E9006908BE000A
:100730004F080F39203E840090300318013E850099
:100740000008E8006808BF0048080319A82BA92B77
:10075000662AB72A0A304706031DAF2BB02BDC2BC5
:100760004903031DB42BB52B7E2822008C171E30A5
:100770002000E8006808BC00BD014F08E800043014
:10078000E836890BC02B68080F39203E8400903072
:100790000318013E85000008E9006908BE004F0803
:1007A0000F39203E840090300318013E8500000878
:1007B000E8006808BF00662A7E288031442803309C
:1007C000F0007008FC057C083C3E860087010108AB
:1007D00022008F00F72B8C1190140D2C90108E148A
:1007E0000D2C8E100C160D2C0C128C150D2C7C085B
:1007F000F000F1017108003A0319FF2B0D2C70086D
:10080000003A0319EB2B013A0319EE2B033A0319B3
:10081000F12B013A0319F42B0D2C0130F000700874
:10082000FC07200038080319162C172C212CC8307F
:10083000340203181C2C1D2C212C0130F0007008F0
:10084000B40739080319252C262C302CC830350262
:1008500003182B2C2C2C302C0130F0007008B5071D
:100860003A080319342C352C3F2CC83036020318B3
:100870003A2C3B2C3F2C0130F0007008B6073B08A7
:100880000319432C442C4E2CC83037020318492C32
:100890004A2C4E2C0130F0007008B70708007E1C6F
:1008A000532C8431A92C8B313F238431031C592CC8
:1008B0005A2C8C2C672C8B3151238431A82C8B31F2
:1008C0005A238431A82C8B316C238431A82C21002D
:1008D0003A082000D4005408DC001130A03E860005
:1008E0008701413F8A00403F0A0084312000D50043
:1008F000D6015608003A03197E2C632C5508013A9C
:100900000319632C033A03195B2C013A03195F2C7A
:10091000073A0319632C632C2100A0110230A03E7A
:1009200086008701403F84008501810A00088A31E2
:10093000E622843101302100A3020030A43B2308C9
:100940002404031DA42CA52CA72C0630A82C0330AE
:1009500008008B310D238431031CAF2CB02CE12C0B
:10096000BD2C8A31A0228431FD2C8A31A52284310C
:10097000FD2C8A31AF228431FD2C21003A08F00091
:1009800070082000D4001130A03E86008701413F4E
:100990008A00403F0A008431F100F2017208003AF7
:1009A0000319D32CB92C7108013A0319B92C033A55
:1009B0000319B12C013A0319B52C073A0319B92CC4
:1009C000B92C2100A0110230A03E86008701403FD3
:1009D00084008501810A00088A3196228431013021
:1009E0002100A3020030A43B23082404031DF92C9A
:1009F000FA2CFC2C0630FD2C033008007E1C022D46
:100A00008531A22D8A31742284312000D300210047
:100A10002208860087012000530881000130D3009E
:100A200053082100A2070130A3020030A43B230891
:100A3000240403191C2D1D2D222D8A318E22843170
:100A40000530502D20152C2D8B3187238431502DCE
:100A50008B317E238431502D37082000D30053087A
:100A6000DC000B30A03E86008701413F8A00403FFA
:100A70000A0085312000D400D5015508003A031939
:100A8000422D282D5408013A0319282D033A031941
:100A9000242D013A0319242D073A0319282D282D56
:100AA00008002000D600D701D70A2100A018592D30
:100AB0005A2D9F2D20005608D50055082100A10071
:100AC0002010A014A0110E302000D50055082100E0
:100AD000A900F430A7000130A8002015D430AB00E5
:100AE0000A30AC00B701D430AD000A30AE00B80116
:100AF000D430AF000A30B000B901D430B1000A30B0
:100B0000B200BA01DA30B3000A30B400BB018B3155
:100B1000D52385318A31622285317A302000D30095
:100B20000A30D4008A31EC22853133302000D300E2
:100B30000F30D4008A31F22285312000D701200005
:100B4000570808008A3159228531F0002100220817
:100B500086008701700881000130F0007008A2074C
:100B60000130A3020030A43B230824040319B92D4B
:100B7000BA2DBF2D8A317E2285310530EC2D20150E
:100B8000C92D8A31BE228531EC2D8A31B9228531B9
:100B9000EC2D3708F00070082000D4000B30A03E88
:100BA00086008701413F8A00403F0A008531F100FD
:100BB000F2017208003A0319DE2DC52D7108013AC1
:100BC0000319C52D033A0319C12D013A0319C12D8B
:100BD000073A0319C52DC52D080020004035203ED9
:100BE00086008701403FD900413FDA005908DB0009
:100BF0005A08DC00DD01DE015B08B0025C08B13B95
:100C00005D08B23B5E08B33B5708B0075808B13DDA
:100C10000030B23DB33D4035203E86008701570885
:100C2000C03F5808C13F0130C0070030C13D00300F
:100C30004102083003194002031C1F2E202E222ED1
:100C4000C001C1013008D9003108DA003208DB00E8
:100C50003308DC000330DC36DB0CDA0CD90C890BF2
:100C60002B2E5A08D8005908D70008002000E401AC
:100C7000E501E601E701722E0A30D3000030D4000E
:100C80006008D6005F08D50087316F2786312000C5
:100C90005308E1005408E2006608E3000130E33540
:100CA000FF3E031D4F2E6335890A582EE135E20DB4
:100CB000890B562E6108E4046208E5040130E6075A
:100CC0000030E73D0A30D3000030D4006008D60081
:100CD0005F08D5008631F926863120005408E000EF
:100CE0005308DF005F086004031D772E782E3C2E2A
:100CF0006508E0006408DF00080002302000E7001B
:100D00003830E600AD30890B832EE60B832EE70BDF
:100D1000832E2000DD014A30E6006608DE0009303F
:100D2000DF000030E00068308631BB2686312000CD
:100D3000CA1F9B2E9C2EBA2ECA01CB01CC01CD011D
:100D4000CE01CE0ACF01CF0AD001D00A2030E60072
:100D50006608D1001030E6006608D2004A30E6008E
:100D60006608DD000930DE000030DF0068308E31BB
:100D70008126863108002000E2005E08E10061085B
:100D8000E5006008E4005F08E300200062088531A8
:100D900051258631003A0319CE2ECF2EC52EC530EF
:100DA0002000D8000D30D9006330E1006108DA007E
:100DB0008B31FC23863101302000D3000030D40079
:100DC0005D308C31C7248631E0302000D8000A30F5
:100DD000D900DA018C31182486318A31C322863158
:100DE0008D31A7258631013A0319F72EF82EF02E02
:100DF00008002000D901DA01530854040319012F17
:100E0000022F312FD801D80A0E2F0130D335D40D3F
:100E1000890B062F0130D7005708D807D41F112F90
:100E2000122F052F0130D935DA0D890B132F5408F5
:100E30005602031D1D2F53085502031C202F212F7E
:100E4000262F5308D5025408D63B59140130D43606
:100E5000D30C890B272F0130D802031D302F312FDF
:100E6000122F5A08D4005908D30008007E1C3A2FCC
:100E70008F31642F210020154A2F8B316323873156
:100E80006E2F8A317722873103306E2F8B316C239E
:100E900087316E2F37082000D3005308DC000B3059
:100EA000A03E86008701413F8A00403F0A0087310B
:100EB0002000D400D5015508003A0319602F462FB1
:100EC0005408013A0319462F033A03193D2F013AFA
:100ED00003193D2F073A0319412F462F0800200020
:100EE000530854040319752F762F9F2FD801D80A61
:100EF000822F0130D335D40D890B7A2F0130D700E2
:100F00005708D807D41F852F862F792F54085602EB
:100F1000031D8C2F53085502031C8F2F902F942FE5
:100F20005308D5025408D63B0130D436D30C890B74
:100F3000952F0130D802031D9E2F9F2F862F560814
:100F4000D4005508D30008002000D3000930530610
:100F5000031DAB2FAC2FAE2F1030D82F19305306F6
:100F6000031DB32FB42FB62F2030D82F29305306AE
:100F7000031DBB2FBC2FBE2F3030D82F3930530666
:100F8000031DC32FC42FC62F4030D82F493053061E
:100F9000031DCB2FCC2FCE2F5030D82F59305306D6
:100FA000031DD32FD42FD62F0030D82F5308013E46
:100FB00008002000D700530854040319E02FE12F44
:100FC000F22F5735AB3E860087015308C03F5408C7
:100FD000C13F5508D6005708B73E8600870156081E
:100FE0008100FF2F5735AB3E86008701D430C03FCC
:100FF0000A30C13F5708B73E8600870181010800CB
:10148A0008000800080008000130080005300800BC
:10149A002000921108002400961408002400161552
:1014AA0008002400961508002400110808002000EE
:1014BA0091150800200091110800200091110800E0
:1014CA002100911108002400161408002400961423
:1014DA0008002400161508002400961508002400A8
:1014EA00110808002000911508008A314D228A311E
:1014FA0008002400961216160800240096161616DE
:10150A00080081302200970008001230210097005D
:10151A0008002400961216160800240096161616BD
:10152A000800F00070082400910008002100201033
:10153A00AA010E3008008A3150228A31013008008F
:10154A008A3150228A31023008008A3150228A3187
:10155A00013008008A3153228A31003008008A316A
:10156A007E228A31053008008A3182228A310A3085
:10157A0008008A3182228A310930080000308E310F
:10158A0057268A31080020005408EE005308ED005F
:10159A00080020005408F9005308F80008007E1CCF
:1015AA00D82A8A31492A013008007E1CDE2A8A316B
:1015BA004B2A053008007E1CE42A803102280330B9
:1015CA0008002000D30053082400910008002000DE
:1015DA005408FB005308FA00080020005408C5000C
:1015EA005308C4000800640080010131890BF92AFC
:1015FA0000342100A0118A3156228A3104300800B1
:10160A000B117D08200095008B31A5238B31080032
:10161A002400160E890C890C0139F000700C0800A0
:10162A008A3147228B3121002010AA010E3008008E
:10163A002100A01521358A3196228B31033008000A
:10164A00013021009D00E3309E009B019C010800AF
:10165A002700161E312B322B352B8C3126248B3149
:10166A0008002100A0150314210D8A3196228B311E
:10167A00053008002400160E890C890C0139200057
:10168A00D300530C08007E1C4C2B8A319B2A210064
:10169A002010AA010E3008007E1C552B8A31A02A80
:1016AA008A316B228B31013008007E1C5E2B8A3115
:1016BA00A52A8A316B228B31023008007E1C672BE7
:1016CA008A31AA2A8A316B228B31013008007E1CAA
:1016DA00702B8A31AF2A8A316E228B310030080092
:1016EA007E1C792B8A31B42A8A318E228B310530BD
:1016FA0008007E1C822B8A31B92A8A3192228B31C8
:10170A000A3008007E1C8B2B8A31BE2A8A3192222B
:10171A008B31093008002100110C2000D300D30CB2
:10172A00530C0139D400540C08007E1C9E2B8A31BC
:10173A00FE2A2100A0118A3171228B31043008005F
:10174A00780879040319AA2BAB2BB02B79088A00E5
:10175A0078080A008B31080070302100990098013E
:10176A002200960121001A1FBB2BBC2BB72B0800A5
:10177A007E1CC12B8B31152B8A3148228B312100DB
:10178A002010AA010E3008007E1CCD2B8B311D2B98
:10179A002100A01521358A31E6228B310330080059
:1017AA002400951AD92BDA2BE02B940128309500C6
:1017BA0096014F30920008007E1CE52B8B31362BA8
:1017CA002100A0150314210D8A31E6228B31053040
:1017DA0008007608F1007508F00077082000D300A9
:1017EA005308F20000308E3107268B3108002000A2
:1017FA005908D4005808D3005A08DB005B08D50002
:10180A0000308731D9278B310800122C00308C31F7
:10181A0045248C318F3133278C3121002018162C26
:10182A00172C0B2C080020005908D4005808D300A4
:10183A005A08DB005B08D50002308731D9278C3182
:10184A00080020006D086E0403192C2C2D2C322C54
:10185A006E088A006D080A008C31270016120800EB
:10186A00F3002100201D3A2C3B2C442C7308F20073
:10187A007208A2007108A4007008A30020110800D1
:10188A0020009119492C4A2C552C2000911D4E2CD0
:10189A004F2C502C552CA0300032890B512C4A2C3D
:1018AA0008000230F0000030F100200054088C31AA
:1018BA0035248C310030F500F600F7018B31EE2328
:1018CA008C31043008000130F0000030F1002000B3
:1018DA0054088C3135248C310030F500F600F701BC
:1018EA008B31EE238C31043008000130F0000030D7
:1018FA00F100200054088C3135248C310030F50079
:10190A00F600F7018B31EE238C31023008000230E9
:10191A00F0000030F100200054088C3135248C315D
:10192A000030F500F600F7018B31EE238C310230DE
:10193A0008008E31D8268C318B31B1238C318A3113
:10194A008A228C318A3186228C318C31B1248C31B5
:10195A008B3125238C31080021001508C03917382E
:10196A0095008330200095008330D5005508FD008E
:10197A000B118B164630D3000A30D4008A31CE229E
:10198A008C3108002000D6002100201DCD2CCE2C41
:10199A00DD2C20005608D50055082100A2002000A1
:1019AA0054082100A400200053082100A30020119C
:1019BA0008007E1CE22C8C31562C02302000D30009
:1019CA000030D4005C088C31C7248C3100302000F0
:1019DA00D800D900DA018B31FC238C31043008009D
:1019EA007E1CF92C8C31682C01302000D300003089
:1019FA00D4005C088C31C7248C3100302000D80018
:101A0A00D900DA018B31FC238C31043008007E1CAA
:101A1A00102D8C317A2C01302000D3000030D400F4
:101A2A005C088C31C7248D3100302000D800D900E1
:101A3A00DA018B31FC238D31023008007E1C272D00
:101A4A008C318C2C02302000D3000030D4005C088A
:101A5A008C31C7248D3100302000D800D900DA013A
:101A6A008B31FC238D310230080020005408860097
:101A7A008701403FF000413FF1005408023E8600D2
:101A8A00870101088C3135248D310030F500F600CC
:101A9A00F7018B31EE238D31023008002000E3007C
:101AAA00CA01CB0161087F39E2006208CC006308F1
:101ABA003F39E2006208CD004A30E2006208DD00E8
:101ACA000430DE000030DF0068308E3181268D312F
:101ADA0008002000D3005308031D742D752D772D9F
:101AEA002330892D10305306031D7C2D7D2D7F2D2B
:101AFA000930892D20305306031D842D852D872D0D
:101B0A001930892D5308FF3E08002000D300093000
:101B1A005306031D912D922D942D1030A62D1930A8
:101B2A005306031D992D9A2D9C2D2030A62D233066
:101B3A005306031DA12DA22DA42D0030A62D530856
:101B4A00013E08002000D401D40A21002018AE2D3D
:101B5A00AF2DC22DA010FF302000D3005308210062
:101B6A00A1008A3162228D318A3165228D312100AC
:101B7A002A082000D3005308D40020005408080083
:101B8A007E1CC92D8D313A2D20005C088600870104
:101B9A00403FD300413FD4005C08023E86008701E3
:101BAA0001088C31C7248D3100302000D800D900BB
:101BBA00DA018B31FC238D31023008002000D60077
:101BCA005608D500D50DD50D21001D082000550653
:101BDA008339550621009D001D140D30890BF32D04
:101BEA00000021009D14FA2D640021009D18FE2D8D
:101BFA00FF2DF92D1C082000D40021001B0820000D
:101C0A00D3000800F4007008710403190D2E0E2E7B
:101C1A001F2E7435AB3E860087017008C03F7108DD
:101C2A00C13F7208F3007408B73E86008701730843
:101C3A0081002C2E7435AB3E86008701D430C03F1C
:101C4A000A30C13F7408B73E860087018101080047
:101C5A008A315F228E312100A01D342E352E412E6D
:101C6A008B310D238E31031C3B2E3C2E412E0F301F
:101C7A00F30073082100A90021002908F300F401E8
:101C8A00F335F40D0030730784009030743D8500FD
:101C9A00013F8A00003F0A008E31F50075082100D5
:101CAA00A90008002000DB00DC01DC0A2100201862
:101CBA005F2E602E7E2E20142000DC015B080319A3
:101CCA00672E682E6C2E2100A901A90A712E0230F6
:101CDA00DA005A082100A9008A3168228E318B3134
:101CEA0090238E3103187A2E7B2E7E2E8C310A2475
:101CFA008E3120005C0808002000E0002000600807
:101D0A00853151258E31003A03198C2E8D2E832E62
:101D1A0020005F08D4005E08D3005D088C31C72418
:101D2A008E31E0302000D8000A30D900DA018C3137
:101D3A0018248E318A31C3228E318D31A7258E31F6
:101D4A00013A0319A92EAA2EA22E08002100A011D9
:101D5A000230F0007008AA00BA2E8A31AA228E3107
:101D6A00D72E8A31AF228E31D72E3908F00070086B
:101D7A002000D4000F30A03E86008701413F8A0030
:101D8A00403F0A008E31F100F2017208003A03194D
:101D9A00CF2EB62E7108023A0319B22E013A031950
:101DAA00B22EB62E0800220090018F018C018D01FF
:101DBA008E010D302100900067308C007F308D003D
:101DCA00FD308E008F0123008F0120308D000530F9
:101DDA00900027308C00240090018D012100951776
:101DEA0022009D01270016121512141645302000F4
:101DFA00D3000A30D4008A31C8228E318B150800EC
:101E0A0020004708031D0A2F0B2F1B2F0310220047
:101E1A008C1F03140318122F152F22008C17172F4B
:101E2A0022008C132000C901C90A252F480803196A
:101E3A001F2F202F222FC801172FC801C80A172FBA
:101E4A0046080319292F2A2F322F0130C6024608C5
:101E5A00031D302F312F322FC70108007E1C372F68
:101E6A008E312D2E8A3162228F312100A01D3E2F04
:101E7A003F2F4C2F8B313F238F31031C452F462F89
:101E8A004C2F0F302000D70057082100A90021004D
:101E9A0029082000D700D801D735D80D00305707B8
:101EAA0084009030583D8500013F8A00003F0A00B7
:101EBA008F312000D90059082100A900080021000B
:101ECA002015742F8A31AA228F31972F8A315C22EA
:101EDA008F310330972F8A31AF228F31972F3708EE
:101EEA00F00070082000D4000B30A03E8600870165
:101EFA00413F8A00403F0A008F31F100F201720827
:101F0A00003A0319892F702F7108013A0319702FAB
:101F1A00033A0319672F013A0319672F073A03197E
:101F2A006B2F702F08002000D3005308031D9E2F2B
:101F3A009F2FA12F5930CB2F10305306031DA62FE8
:101F4A00A72FA92F0930CB2F20305306031DAE2F00
:101F5A00AF2FB12F1930CB2F30305306031DB62FB8
:101F6A00B72FB92F2930CB2F40305306031DBE2F70
:101F7A00BF2FC12F3930CB2F50305306031DC62F28
:101F8A00C72FC92F4930CB2F5308FF3E08007E1CAC
:101F9A00D02F8E31AB2E2100A01102302000D300A9
:101FAA0053082100AA00E12F8B3163238F31FF2FC1
:101FBA008B316C238F31FF2F39082000D30053084F
:101FCA00DC000F30A03E86008701413F8A00403F77
:101FDA000A008F312000D400D5015508003A0319B0
:101FEA00F72FDD2F5408023A0319D92F013A0319A2
:101FFA00D92FDD2F080048340B34E1340B34C934AF
:10200A000B344F340434FE3404349A340B343634EB
:10201A00073451340B345A340B3463340B346C3474
:10202A000B3475340B347E340B3487340B34BD34A3
:10203A000B34CC340F34FC346034DA34F234663482
:0A204A00B634BE34E034FE34F63440
:020000040001F9
:04000E005CFFCFFFC5
:00000001FF
