:020000040000FA
:1000000080314428033008007E1480318B1E09287B
:100010000A2812280B1D0D280E2812289631342686
:10002000803142288B1D152816281E280B1C1928E4
:100030001A281E2896315C26803142280B1F212861
:10004000222842282100921D262827283228200015
:10005000921D2B282C28322839088A0038080A00DB
:10006000803142282100911D36283728422820005F
:10007000911D3B283C28422837088A0036080A0090
:10008000803142287E10090080314628F901FA01AA
:10009000FB01FC01FD01203084000030850036307A
:1000A000963127268031A03084000030850033301F
:1000B0009631272680317E10200080315F288831DC
:1000C0002E208031220090108E100C128C112000F6
:1000D000BF01BC01BB01013097312F2780312000C7
:1000E000EB006B08BA0005303A02031C7828792827
:1000F0007A28BA013330D6000C30D70096317726F3
:10010000803108302000D6000730D7009531FD251A
:1001100080318B170B178F314D2780316400200001
:100120000D18932894289728A401A40A122B8D183F
:100130009A289B289E28A501A50A122B0D19A128F3
:10014000A228A528A601A60A122B8D19A828A9283D
:10015000AC28A701A70A122B2403031DB028B1283D
:10016000542906302002031CB628B72852296430CF
:1001700020020318BC28BD2852293F08031DC128AE
:10018000C228CD280230EB006B08BF001230EB0014
:100190006B08BE00C101C10A522902303F06031D8F
:1001A000D228D328DC280330EB006B08BF001230C4
:1001B000EB006B08BE00CA2803303F06031DE12890
:1001C000E228EF280430EB006B08BF001230EB0090
:1001D0006B08BE000430EB006B08BD00CA28043079
:1001E0003F06031DF428F528FE280530EB006B08B8
:1001F000BF001230EB006B08BE00CA2805303F0676
:10020000031D0329042911290630EB006B08BF00E8
:100210001230EB006B08BE000430EB006B08BD0031
:10022000CA2806303F06031D162917292029073042
:10023000EB006B08BF001230EB006B08BE00CA2851
:1002400007303F06031D2529262933290830EB00F6
:100250006B08BF001230EB006B08BE000430EB00EF
:100260006B08BD00CA2808303F06031D382939290C
:1002700042290930EB006B08BF001230EB006B081D
:10028000BE00CA2809303F06031D472948295129C5
:100290000A30EB006B08BF001230EB006B08BE00A9
:1002A000CA28BF01A001A4012503031D582959290B
:1002B000F72906302102031C5E295F29F5296430E5
:1002C0002102031864296529F52902303F06031D20
:1002D0006A296B297A2944088931772180312000E5
:1002E000EB006B08C4001230EB006B08BE00C101CC
:1002F000C10AF52903303F06031D7F29802989297A
:1003000043088C31D52480312000EB006B08C300FA
:10031000732904303F06031D8E298F299829470829
:100320008831032080312000EB006B08C70073295F
:1003300005303F06031D9D299E29A72946088A31BD
:100340002A2280312000EB006B08C600732906309A
:100350003F06031DAC29AD29B6294B088931772109
:1003600080312000EB006B08CB00732907303F067B
:10037000031DBB29BC29C5294A088C31D5248031ED
:100380002000EB006B08CA00732908303F06031DEC
:10039000CA29CB29D4294E08893177218031200000
:1003A000EB006B08CE00732909303F06031DD929E5
:1003B000DA29E3294D088C31D52480312000EB0067
:1003C0006B08CD0073290A303F06031DE829E9298F
:1003D000F5290130EB006B08BA0705303A06031D1A
:1003E000F229F3297329BA017329A101A501260372
:1003F000031DFB29FC29962A06302202031C012A30
:10040000022A942A643022020318072A082A942A0E
:1004100002303F06031D0D2A0E2A1D2A4408893189
:10042000572180312000EB006B08C4001230EB0034
:100430006B08BE00C101C10A942A03303F06031DA8
:10044000222A232A2C2A43088C319D248031200023
:10045000EB006B08C300162A04303F06031D312A47
:10046000322A3B2A47089731EB2780312000EB00E6
:100470006B08C700162A05303F06031D402A412A93
:100480004A2A46088A31052280312000EB006B0899
:10049000C600162A06303F06031D4F2A502A592A45
:1004A0004B088931572180312000EB006B08CB00CD
:1004B000162A07303F06031D5E2A5F2A682A4A086B
:1004C0008C319D2480312000EB006B08CA00162A75
:1004D00008303F06031D6D2A6E2A772A4E0889319F
:1004E000572180312000EB006B08CE00162A09301E
:1004F0003F06031D7C2A7D2A862A4D088C319D24C7
:1005000080312000EB006B08CD00162A0A303F0630
:10051000031D8B2A8C2A942A3A080319902A912ABF
:10052000162A0130BA02162AA201A6012703031DCA
:100530009A2A9B2A122B06302302031CA02AA12AE6
:100540000F2B643023020318A62AA72A0F2B023090
:100550003F060319AC2AAD2AB32A03303F06031D18
:10056000B22AB32ABC2A4308EB006B08E400440813
:100570008931002180310B2B04303F06031DC12A35
:10058000C22AC72A47088831CF2080310B2B05307B
:100590003F06031DCC2ACD2AD22A46088831B7202F
:1005A00080310B2B06303F060319D72AD82ADE2AC2
:1005B00007303F06031DDD2ADE2AE72A4A08EB0042
:1005C0006B08E4004B088A319C2280310B2B0830E9
:1005D0003F060319EC2AED2AF32A09303F06031DD2
:1005E000F22AF32AFC2A4D08EB006B08E4004E08BF
:1005F0008A31C42280310B2B0A303F06031D012BA8
:10060000022B0B2B3A08EB006B08D6000130893126
:10061000BC2180310B2B2000BF01C101C10AA30105
:10062000A701122B3F08031D162B172B782B410314
:10063000031D1B2B1C2BF92E0D1E1F2B202B3A2BC1
:10064000E0014230EB006B08E1001030E2000030C6
:10065000E30068308D31842580312000511C312B1E
:10066000322B342BBC01BC0AD11C372B382B3A2B34
:10067000BB01BB0A4408EB000430EB36890B3D2B71
:100680006B080339003E840098300318013E850052
:100690000008EC006C08A80044080F39003E8400F4
:1006A00098300318013E85000008EB006B08A90094
:1006B0004308EB000430EB36890B5B2B6B080739E2
:1006C000003E840098300318013E85000008EC00CD
:1006D0006C08AA0043080F39003E840098300318C4
:1006E000013E85000008EB006B08AB00C101F92E4C
:1006F0003F03031D7C2B7D2BE32B4103031D812B2B
:10070000822BF92E22008C130D30893198218031F3
:1007100020005708DB005608DA008731782780313F
:1007200020005B08E3005A08E2008D31C2258031C9
:1007300020006308AF006208AE002F08EC002E080E
:10074000EB006C08EB00EC010F306B05ED000030A6
:100750006C05EE0000306D07840098306E3D85001A
:100760000008EF006F08A8002F08EC002E08EB002F
:100770000430EC36EB0C890BB92B0F306B05ED0018
:1007800000306C05EE0000306D07840098306E3D3F
:10079000850000080138EF006F08A9000F302E0512
:1007A000EB0000302F05EC0000306B078400983020
:1007B0006C3D85000008ED006D08AA009C30EB0040
:1007C0006B08AB00762B02303F06031DE82BE92BAC
:1007D000342C4103031DED2BEE2BF92E22008C1738
:1007E00020004408EB000430EB36890BF42B6B0837
:1007F0000339003E840098300318013E850000084C
:10080000EC006C08A80044080F39003E84009830C2
:100810000318013E85000008EB006B08A90043089F
:10082000EB000430EB36890B122C6B080739003EC5
:10083000840098300318013E85000008EC006C0825
:10084000AA0043080F39003E840098300318013E87
:1008500085000008EB006B08AB0040080319312C41
:10086000322C762B2914762B03303F06031D392CAE
:100870003A2C852C4103031D3E2C3F2CF92E2200DF
:100880008C1720004408EB000430EB36890B452C14
:100890006B080339003E840098300318013E850040
:1008A0000008EC006C08A80044080F39003E8400E2
:1008B00098300318013E85000008EB006B08A90082
:1008C0004308EB000430EB36890B632C6B080739C7
:1008D000003E840098300318013E85000008EC00BB
:1008E0006C08AA0043080F39003E840098300318B2
:1008F000013E85000008EB006B08AB0040080319BF
:10090000822C832C762B2B14762B04303F06031D70
:100910008A2C8B2CEE2C4103031D8F2C902CF92E4E
:100920003D080319942C952CA92C22008C137A30A5
:100930002000EB006B08A8007A30EB006B08A900E0
:10094000CC30EB006B08AA00E430EB006B08AB0086
:10095000762B22008C1320004608EB000430EB3687
:10096000890BAF2C6B080339003E840098300318C4
:10097000013E85000008EC006C08A80046080F390D
:10098000003E840098300318013E85000008EB000B
:100990006B08A9004708EB000430EB36890BCD2C1F
:1009A0006B080139003E840098300318013E850031
:1009B0000008EC006C08AA0047080F39003E8400CC
:1009C00098300318013E85000008EB006B08AB006F
:1009D00040080319EC2CED2C762B832C05303F06B8
:1009E000031DF32CF42C3E2D4103031DF82CF92C90
:1009F000F92E22008C1320004608EB000430EB3661
:100A0000890BFF2C6B080339003E840098300318D3
:100A1000013E85000008EC006C08A80046080F396C
:100A2000003E840098300318013E85000008EB006A
:100A30006B08A9004708EB000430EB36890B1D2D2D
:100A40006B080139003E840098300318013E850090
:100A50000008EC006C08AA0047080F39003E84002B
:100A600098300318013E85000008EB006B08AB00CE
:100A7000400803193C2D3D2D762B322C06303F06C5
:100A8000031D432D442DA42D4103031D482D492D45
:100A9000F92E3D0803194D2D4E2D5F2D22008C138C
:100AA000EE302000EB006B08A8001C30EB006B0858
:100AB000A900AA016030EB006B08AB00762B220086
:100AC0008C1720004B08EB000430EB36890B652DAA
:100AD0006B080339003E840098300318013E8500FE
:100AE0000008EC006C08A8004B080F39003E840099
:100AF00098300318013E85000008EB006B08A90040
:100B00004A08EB000430EB36890B832D6B0807395C
:100B1000003E840098300318013E85000008EC0078
:100B20006C08AA004A080F39003E84009830031868
:100B3000013E85000008EB006B08AB00400803197C
:100B4000A22DA32D762B322C07303F06031DA92D95
:100B5000AA2DF42D4103031DAE2DAF2DF92E220039
:100B60008C1720004B08EB000430EB36890BB52DB9
:100B70006B080339003E840098300318013E85005D
:100B80000008EC006C08A8004B080F39003E8400F8
:100B900098300318013E85000008EB006B08A9009F
:100BA0004A08EB000430EB36890BD32D6B0807396C
:100BB000003E840098300318013E85000008EC00D8
:100BC0006C08AA004A080F39003E840098300318C8
:100BD000013E85000008EB006B08AB0040080319DC
:100BE000F22DF32D762B832C08303F06031DF92DB3
:100BF000FA2D5A2E4103031DFE2DFF2DF92E3D081F
:100C00000319032E042E152E22008C13EE30200023
:100C1000EB006B08A8001C30EB006B08A900AA01D0
:100C2000DA30EB006B08AB00762B22008C1720002B
:100C30004E08EB000430EB36890B1B2E6B08033992
:100C4000003E840098300318013E85000008EC0047
:100C50006C08A8004E080F39003E84009830031835
:100C6000013E85000008EB006B08A9004D08EB0071
:100C70000430EB36890B392E6B080739003E8400AF
:100C800098300318013E85000008EC006C08AA00AB
:100C90004D080F39003E840098300318013E85004E
:100CA0000008EB006B08AB0040080319582E592EC2
:100CB000762B322C09303F06031D5F2E602EAA2EA4
:100CC0004103031D642E652EF92E22008C1720008F
:100CD0004E08EB000430EB36890B6B2E6B080339A2
:100CE000003E840098300318013E85000008EC00A7
:100CF0006C08A8004E080F39003E84009830031895
:100D0000013E85000008EB006B08A9004D08EB00D0
:100D10000430EB36890B892E6B080739003E8400BE
:100D200098300318013E85000008EC006C08AA000A
:100D30004D080F39003E840098300318013E8500AD
:100D40000008EB006B08AB0040080319A82EA92E81
:100D5000762B832C0A303F06031DAF2EB02EF92EC2
:100D60004103031DB42EB52EF92E22008C13200052
:100D70003A08EB00EC016B08E2006C08E3008D31EF
:100D8000C225803120006208ED00EE016D08AE0042
:100D90006E08AF007A30EB006B08A800A9012F089D
:100DA000EC002E08EB000430EC36EB0C890BD42E53
:100DB0000F306B05ED0000306C05EE0000306D0764
:100DC000840098306E3D85000008EF006F08AA008F
:100DD0000F302E05EB0000302F05EC0000306B07C4
:100DE000840098306C3D85000008ED006D08AB0074
:100DF000762B3C080319FD2EFE2EFF2EBC013B086E
:100E00000319032F042F8E28BB018E28803144281C
:100E10000330F0007008FB057B08283E8600870140
:100E2000010822008F00202F8C119014362F901073
:100E30008E14362F8E100C16362F0C128C15362F62
:100E40007B08F000F1017108003A0319282F362FB2
:100E50007008003A0319142F013A0319172F033AA7
:100E600003191A2F013A03191D2F362F0130F000F4
:100E70007008FB072000240803193F2F402F4A2F3A
:100E8000C83020020318452F462F4A2F0130F000AA
:100E90007008A007250803194E2F4F2F592FC8306F
:100EA00021020318542F552F592F0130F0007008DC
:100EB000A107260803195D2F5E2F682FC830220274
:100EC0000318632F642F682F0130F0007008A20709
:100ED000270803196C2F6D2F772FC83023020318B2
:100EE000722F732F772F0130F0007008A3070800CE
:100EF00020002C35BD3E86008701403FDC00413F8D
:100F0000DD005C08DE005D08DF00E001E1015E0855
:100F10002100CD0220005F082100CE3B20006008A8
:100F20002100CF3B200061082100D03B20005A085F
:100F30002100CD0720005B082100CE3D0030CF3DD1
:100F4000D03D20002C35BD3E860087015A08C03FA9
:100F50005B08C13F0130AC070030AD3D00302D02D1
:100F6000083003192C02031CB62FB72FB92FAC0180
:100F7000AD0121004D082000DC0021004E082000BA
:100F8000DD0021004F082000DE0021005008200075
:100F9000DF000330DF36DE0CDD0CDC0C890BCA2FE2
:100FA0005D08DB005C08DA0008002000E300200098
:100FB00063088E3154268731003A0319E02FE12F60
:100FC000D72F20006208D7006108D600600888315A
:100FD000442087310F302000DB001630DC00DD01BB
:100FE0009731652787319531EC25873189311B2170
:100FF0008731013A0319FD2FFE2FF62F0800080054
:101000002000911508002000D60009305606031D67
:101010000A280B280D281030172812305606031DF9
:10102000122813281528013017285608013E0800F9
:1010300021001508C039173895008330200095002D
:101040008330D8005808FD000B118B167330D60082
:101050001530D7009531FD25883108008B316D237F
:1010600088319631F22688319531B3258831953112
:10107000AF2588319631542688318831182088313F
:101080008931E021883108002000D9002100201D8D
:101090004A284B285A2820005908D800580821000F
:1010A000A200200057082100A400200056082100BB
:1010B000A300201108007E1C5F289731A32F023067
:1010C0002000D6000030D7005F08883144208831E6
:1010D00000302000DB00DC00DD019731492788313A
:1010E000043008007E1C76289731B52F013020008F
:1010F000D6000030D7005F088831442088310030A6
:101100002000DB00DC00DD01973149278831043005
:1011100008007E1C8D289731C72F01302000D60093
:101120000030D7005F08883144208831003020002B
:10113000DB00DC00DD0197314927883102300800EF
:101140007E1CA4289731D92F02302000D600003011
:10115000D7005F0888314420883100302000DB0050
:10116000DC00DD019731492788310230080020007A
:10117000E5000430E4006408C20065083F39E4007B
:101180006408C3004230E4006408E0000230E1007B
:101190000030E20068308731D52788310800200010
:1011A000E5000530E4006408C20065089F39E400EA
:1011B0006408C3004230E4006408E0000230E1004B
:1011C0000030E20068308731D527883108002000E0
:1011D000560886008701403FF000413FF100560865
:1011E000023E86008701010897318227883100304E
:1011F000F500F600F7019731222788310230080008
:101200002000E600C201C30164087F39E5006508DB
:10121000C40066083F39E5006508C5004230E500B6
:101220006508E0000430E1000030E20068308731FA
:10123000D527893108002000D701D70A21002018BE
:10124000222923293629A010FF302000D600560875
:101250002100A10095318E25893195319125893163
:1012600021002A082000D6005608D7002000570881
:1012700008007E1C3D298831E72820005F08860091
:101280008701403FD600413FD7005F08023E8600FD
:101290008701010888314420893100302000DB00BB
:1012A000DC00DD0197314927893102300800200038
:1012B000D7007F30D6005608D7055708031D61298F
:1012C000622964292330762910305706031D6929C5
:1012D0006A296C290930762920305706031D7129A7
:1012E00072297429193076295708FF3E080020001A
:1012F000D7007F30D6005608D70509305706031DA2
:101300008229832985291030972919305706031D12
:101310008A298B298D292030972923305706031DD0
:10132000922993299529003097295708013E0800F2
:101330002000D9005908D800D80DD80D21001D086B
:10134000200058068339580621009D001D140D30D9
:10135000890BA829000021009D14AF2964002100F9
:101360009D18B329B429AE291C082000D7002100FC
:101370001B082000D60008002000D70057082300D3
:10138000910020005608230093009513151315159E
:1013900000308B1B01302000D8008B135530230008
:1013A0009600AA30960095149518D729D829D429E3
:1013B00015112000580C031C8B1303188B17080001
:1013C000083023009F0090309D0024309E00403064
:1013D0009B0003309C0000302000D6000030D70076
:1013E0009531F125893100302000D6000030D7003A
:1013F0009531F725893100302000D6000030D70024
:1014000096316E268931FC0108002000D60002309A
:10141000560203180C2A0D2A0F2A3130292A1030BF
:101420005606031D142A152A172A0930292A2030A6
:101430005606031D1C2A1D2A1F2A1930292A30305E
:101440005606031D242A252A272A2930292A560828
:10145000FF3E08002000D60031305602031C312A1E
:10146000322A342A01304E2A09305606031D392A01
:101470003A2A3C2A10304E2A19305606031D412ABA
:10148000422A442A20304E2A29305606031D492A72
:101490004A2A4C2A30304E2A5608013E0800F400F1
:1014A000700871040319552A562A672A7435AB3E11
:1014B000860087017008C03F7108C13F7208F300C1
:1014C0007408B73E8600870173088100742A74355A
:1014D000AB3E860087010330C03F1630C13F740821
:1014E000B73E86008701810108002000DA00560817
:1014F000570403197C2A7D2A8E2A5A35AB3E860072
:1015000087015608C03F5708C13F5808D9005A08FC
:10151000B73E86008701590881009B2A5A35AB3EA9
:10152000860087010330C03F1630C13F5A08B73EDE
:1015300086008701810108002000E6000830E500F0
:101540006508C2006408E5006508C3006608BF3985
:10155000E5006508C4006408031DAF2AB02AB52A57
:1015600066080319B42AB52AB72AC317C41742302C
:10157000E5006508E0000330E1000030E20068307B
:101580008731D5278A3108002000E6000B30E500BE
:101590006508C2006408E5006508C3006608BF3935
:1015A000E5006508C4006408031DD72AD82ADD2A8F
:1015B00066080319DC2ADD2ADF2AC317C417423064
:1015C000E5006508E0000330E1000030E20068302B
:1015D0008731D5278A31080095318B258A31210042
:1015E000A01DF32AF42A002B96313C268A31031CD5
:1015F000FA2AFB2A002B0F30F30073082100A90000
:1016000021002908F300F401F335F40D00307307CD
:1016100084009030743D8500013F8A00003F0A003D
:101620008B31F50075082100A90008002000DE00BC
:10163000DF01DF0A210020181E2B1F2B3D2B201459
:101640002000DF015E080319262B272B2B2B2100FE
:10165000A901A90A302B0230DD005D082100A90094
:10166000953194258B319631D1268B310318392B46
:101670003A2B3D2B973157278B3120005F0808000C
:101680002100A0110230F0007008AA004F2B953104
:10169000D3258B316C2B9531D8258B316C2B3908A8
:1016A000F00070082000D6000F30A03E86008701B1
:1016B000413F8A00403F0A008B31F100F20172087D
:1016C000003A0319642B4B2B7108023A0319472B7C
:1016D000013A0319472B4B2B0800220090018F0180
:1016E0008C018D018E010D302100900067308C003F
:1016F0007F308D00BD308E008F0123008F012030A0
:101700008D000530900027308C00240090018D0161
:101710002100951722009D01270016121516141698
:1017200072302000D6001530D700963177268B31E5
:101730008B1508007E1C9E2B8A31EC2A95318E2554
:101740008B312100A01DA52BA62BB32B9631802613
:101750008B31031CAC2BAD2BB32B0F302000DA00E8
:101760005A082100A900210029082000DA00DB0125
:10177000DA35DB0D00305A07840090305B3D850080
:10178000013F8A00003F0A008B312000DC005C082A
:101790002100A900080021002015DB2B9531D3255D
:1017A0008B31FE2B953188258B310330FE2B953103
:1017B000D8258B31FE2B3708F00070082000D600AA
:1017C0000B30A03E86008701413F8A00403F0A005F
:1017D0008B31F100F2017208003A0319F02BD72B7C
:1017E0007108013A0319D72B033A0319CE2B013A9A
:1017F0000319CE2B073A0319D22BD72B08007E1CD6
:10180000032C8B31402B2100A01102302000D60088
:1018100056082100AA00142C9631A4268B31322CB4
:101820009631AD268B31322C39082000D60056086F
:10183000DF000F30A03E86008701413F8A00403F15
:101840000A008C312000D700D8015808003A03194B
:101850002A2C102C5708023A03190C2C013A0319B0
:101860000C2C102C080020003F08031D382C392CAC
:10187000492C031022008C1F03140318402C432C06
:1018800022008C17452C22008C132000C101C10AB4
:10189000532C400803194D2C4E2C502CC001452CC4
:1018A000C001C00A452C3E080319572C582C602C47
:1018B0000130BE023E08031D5E2C5F2C602CBF0170
:1018C0003D080319642C652C672C0130BD0208000B
:1018D00020005608570403196E2C6F2C982CDB013E
:1018E000DB0A7B2C0130D635D70D890B732C0130E8
:1018F000DA005A08DB07D71F7E2C7F2C722C570882
:101900005902031D852C56085802031C882C892C6B
:101910008D2C5608D8025708D93B0130D736D60C43
:10192000890B8E2C0130DB02031D972C982C7F2C09
:101930005908D7005808D60008002000D7007F308B
:10194000D6005608D7055708031DA72CA82CAA2C8B
:101950005930D42C10305706031DAF2CB02CB22CAC
:101960000930D42C20305706031DB72CB82CBA2CC4
:101970001930D42C30305706031DBF2CC02CC22C7C
:101980002930D42C40305706031DC72CC82CCA2C34
:101990003930D42C50305706031DCF2CD02CD22CEC
:1019A0004930D42C5708FF3E08002000D7007F3074
:1019B000D6005608D70509305706031DE02CE12C48
:1019C000E32C10300D2D19305706031DE82CE92C9F
:1019D000EB2C20300D2D29305706031DF02CF12C57
:1019E000F32C30300D2D39305706031DF82CF92C0F
:1019F000FB2C40300D2D49305706031D002D012DC5
:101A0000032D50300D2D59305706031D082D092D7B
:101A10000B2D00300D2D5708013E08007E1C122DA5
:101A20008B31CB2B21002015222D9631A4268D3110
:101A3000462D883100208D310330462D9631AD265C
:101A40008D31462D37082000D6005608DF000B30B8
:101A5000A03E86008701413F8A00403F0A008D3149
:101A60002000D700D8015808003A0319382D1E2D40
:101A70005708013A03191E2D033A0319152D013A8F
:101A80000319152D073A0319192D1E2D08002000E2
:101A9000DC01DD015608570403194F2D502D7F2D11
:101AA000DB01DB0A5C2D0130D635D70D890B542DB7
:101AB0000130DA005A08DB07D71F5F2D602D532D48
:101AC0000130DC35DD0D890B612D57085902031DEE
:101AD0006B2D56085802031C6E2D6F2D742D560861
:101AE000D8025708D93B5C140130D736D60C890B85
:101AF000752D0130DB02031D7E2D7F2D602D5D08CD
:101B0000D7005C08D60008002000E5006108E4006A
:101B10006408E8006308E7006208E6002000650842
:101B20008E3154268D31003A0319972D982D8E2D24
:101B300039302000DB000930DC006630E400640846
:101B4000DD00973149278D3101302000D60000306B
:101B5000D7006030883144208D310F302000DB0009
:101B60001630DC00DD01973165278D319531EC258C
:101B70008D3189311B218D31013A0319C02DC12DC1
:101B8000B92D08002000E701E801E901EA01FE2D76
:101B90000A30D6000030D7006308D9006208D800A8
:101BA0008C3168248D3120005608E4005708E50088
:101BB0006908E6000130E635FF3E031DDB2D663582
:101BC000890AE42DE435E50D890BE22D6408E7046C
:101BD0006508E8040130E9070030EA3D0A30D60024
:101BE0000030D7006308D9006208D8008D3147253E
:101BF0008D3120005708E3005608E20062086304B4
:101C0000031D032E042EC82D6808E3006708E200B8
:101C10000800953185258E31F000210022088600CC
:101C20008701700881000130F0007008A2070130C0
:101C3000A3020030A43B230824040319202E212EE4
:101C4000262E9531A7258E310530532E2015302EA6
:101C50009531E7258E31532E9531E2258E31532E65
:101C60003708F00070082000D6000B30A03E860038
:101C70008701413F8A00403F0A008E31F100F201A6
:101C80007208003A0319452E2C2E7108013A0319E7
:101C90002C2E033A0319282E013A0319282E073A4D
:101CA00003192C2E2C2E08002000D900DA01DA0AA4
:101CB0002100A0185C2E5D2EA22E20005908D8000D
:101CC00058082100A1002010A014A0110E302000FF
:101CD000D80058082100A900F430A7000130A8005E
:101CE00020150330AB001630AC00B7010330AD0057
:101CF0001630AE00B8010330AF001630B000B901A5
:101D00000330B1001630B200BA010930B30016300A
:101D1000B400BB01973116278E3195318E258E3157
:101D2000A3302000D6001530D70096311B268E3107
:101D30009A302000D6000B30D700963121268E3104
:101D40002000DA0120005A0808007E1CA92E8E31DE
:101D5000092E9531A0258E312000D60021002208C1
:101D6000860087012000560881000130D600560801
:101D70002100A2070130A3020030A43B2308240461
:101D80000319C32EC42EC92E9531B7258E310530C7
:101D9000F72E2015D32E9631C8268E31F72E963188
:101DA000BF268E31F72E37082000D6005608DF00F8
:101DB0000B30A03E86008701413F8A00403F0A0069
:101DC0008E312000D700D8015808003A0319E92EB7
:101DD000CF2E5708013A0319CF2E033A0319CB2E01
:101DE000013A0319CB2E073A0319CF2ECF2E080044
:101DF00096313C268E31031CFE2EFF2E302F0C2FE9
:101E00009531C9258E314C2F9531CE258E314C2FF1
:101E10009531D8258E314C2F21003A08F0007008FA
:101E20002000D6001130A03E86008701413F8A0085
:101E3000403F0A008F31F100F2017208003A0319A5
:101E4000222F082F7108013A0319082F033A0319AA
:101E5000002F013A0319042F073A0319082F082FFE
:101E60002100A0110230A03E86008701403F84007F
:101E70008501810A00089531BF258E31013021008E
:101E8000A3020030A43B23082404031D482F492F3C
:101E90004B2F06304C2F0330080002302000EA00A0
:101EA0003830E900AD30890B532FE90B532FEA0B83
:101EB000532F2000E0014230E9006908E1001430AE
:101EC000E2000030E30068308D3184258F3120003E
:101ED000D11F6B2F6C2F902FC201C301C401C5010C
:101EE000C601C60AC701C70AC801C80A2030E900EE
:101EF0006908C900CA01CB01CC01CD01CE01CC01DA
:101F0000CD01D101D2014230E9006908E00014306E
:101F1000E1000030E20068308731D5278F31A52FEE
:101F2000501D932F942FA52F0E30E9006908C20091
:101F3000C3014230E9006908E0000230E1000030EE
:101F4000E20068308731D5278F3108007E1CAA2F28
:101F50008E31F82E963180268F31031CB02FB12F91
:101F6000E32FBE2F963192268F31FF2F96319B267D
:101F70008F31FF2F9631AD268F31FF2F21003A0888
:101F80002000D7005708DF001130A03E86008701EF
:101F9000413F8A00403F0A008F312000D800D9011C
:101FA0005908003A0319D52FBA2F5808013A0319D6
:101FB000BA2F033A0319B22F013A0319B62F073A81
:101FC0000319BA2FBA2F2100A0110230A03E8600BB
:101FD0008701403F84008501810A0008963115265B
:101FE0008F3101302100A3020030A43B23082404D8
:101FF000031DFB2FFC2FFE2F0630FF2F03300800A0
:10200000893416343C3417340A341734A6340F3468
:10201000A5340E34DB3416340E340D3492341634B9
:102020009B341634A4341634AD341634B634163416
:10203000BF341634C8341634FE341634FF340B342F
:102AE4000800080008000130080005300800200034
:102AF40092110800240096140800240016150800FA
:102B040024009615080024001108080020009115DF
:102B140008002000911108002000911108002100F4
:102B240091110800240016140800240096140800CB
:102B34002400161508002400961508002400110826
:102B4400080095317925953108002400961216164F
:102B540008002400961616160800813022009700FB
:102B6400080014302100970008002400961216165D
:102B740008002400961616160800F00070082400B9
:102B84009100080021002010AA010E3008009531A0
:102B94007C2595310130080095317C259531023032
:102BA400080095317C2595310130080095317F2549
:102BB4009531003008009531A7259531053008007E
:102BC4009531AB2595310A3008009531AB25953107
:102BD4000930080000308B3116239531080020009D
:102BE4005708B3005608B200080020005708B10087
:102BF4005608B000080020005708FA005608F900EB
:102C040008007E1C072E9531752D013008007E1CAE
:102C14000D2E9531772D053008007E1C132E803142
:102C24000228033008002000D60056082400910032
:102C3400080020005708B9005608B8000800200012
:102C44005708B7005608B600080064008001013137
:102C5400890B282E00342100A0119531822596314C
:102C6400043008000B117D08200095009631E626FB
:102C7400963108002400160E890C890C0139F000E5
:102C8400700C080095317425963121002010AA019A
:102C94000E3008002100A01521359531BF2596314D
:102CA40003300800013021009D00E3309E009B01A9
:102CB4009C0108002700161E602E612E642E973199
:102CC4007327963108002100A0150314210D9531B6
:102CD400BF25963105300800200057082100D20096
:102CE400200056082100D1000800200057082100C8
:102CF400D400200056082100D30008002400160E3A
:102D0400890C890C01392000D600560C08007E1C61
:102D14008D2E9531C42D21002010AA010E300800FB
:102D24007E1C962E9531C92D95319725963101300B
:102D340008007E1C9F2E9531CE2D95319725963116
:102D4400023008007E1CA82E9531D32D953197258D
:102D54009631013008007E1CB12E9531D82D953165
:102D64009A259631003008007E1CBA2E9531DD2D4F
:102D74009531B7259631053008007E1CC32E953158
:102D8400E22D9531BB2596310A3008007E1CCC2EED
:102D94009531E72D9531BB25963109300800210086
:102DA400110C2000D600D60C560C0139D700570C54
:102DB40008007E1CDF2E96312D2E2100A0119531A6
:102DC4009D2596310430080079087A040319EB2E06
:102DD400EC2EF12E7A088A0079080A009631080050
:102DE40070302100990098012200960121001A1FD9
:102DF400FC2EFD2EF82E08007E1C022F9631442E48
:102E04008731FF27963121002010AA010E300800D7
:102E14007E1C0E2F96314C2E2100A01521359631A3
:102E240015269731033008002400951A1A2F1B2FFA
:102E3400212F94012830950096014F30920008000C
:102E44007608F1007508F0007708F8007808F200B9
:102E540000308A314F22973108002000D6005608EE
:102E6400230091001513951315140000000023008E
:102E7400130808007E1C402F9631652E2100A015F2
:102E84000314210D963115269731053008002000D2
:102E94005C08D7005B08D6005D08DE005E08D80039
:102EA40000308A317522973108005F2F0030973146
:102EB400922797318B319A23973121002018632F61
:102EC400642F582F080020005C08D7005B08D60048
:102ED4005D08DE005E08D80002308A317522973121
:102EE40008002100530854040319792F7A2F7F2FE7
:102EF40054088A0053080A00973127001612080064
:102F0400F3002100201D872F882F912F7308F200D2
:102F14007208A2007108A4007008A3002011080020
:102F240020009119962F972FA22F2000911D9B2FDF
:102F34009C2F9D2FA22FA0300032890B9E2F972FFC
:102F440008000230F0000030F100200056089731EC
:102F5400822797310030F500F600F70197312227D8
:102F64009731043008000130F0000030F1002000F7
:102F740056089731822797310030F500F600F701A3
:102F8400973122279731043008000130F0000030D7
:102F9400F100200056089731822797310030F50060
:102FA400F600F701973122279731023008000230EA
:102FB400F0000030F1002000560897318227973145
:102FC4000030F500F600F7019731222797310230DF
:102FD40008002000D600023056020318F22FF32F07
:102FE400F52F1230FF2F10305606031DFA2FFB2F3A
:102FF400FD2F0930FF2F5608FF3E0800FC346034D3
:10300400DA34F2346634B634BE34E034FE34F634A2
:020000040001F9
:04000E005CFFCFFFC5
:00000001FF
