:020000040000FA
:1000000080312F28033008007E1480318B1A0B1D9D
:100010000D288F313E2780312D288B190B1C142879
:100020008E31FC2680312D280B1F2D282100921D9A
:1000300022282000921D22287B088A007A080A00C4
:1000400080312D282100911D2D282000911D2D2863
:100050004A088A0049080A0080317E100900803170
:100060003128F801F901FA01FB01FC01FD01203002
:1000700084000030850037308F3138277E10200013
:10008000803142288731E4278031220090108E1081
:100090000C128C112000CC014630D7000630D8005D
:1000A0008F3108278031A5302000D7000130D800DB
:1000B0008F310E2780318B170B1783317B238031D3
:1000C00020000D186628C101C10A06298D186B2869
:1000D000C201C20A06290D197028C301C30A0629E4
:1000E0008D197528C401C40A06294103031D9728E8
:1000F00006303D02031C952864303D020318952804
:100100004C08031D8C28CC01CC0A0830EC006C088C
:10011000CB00CD01CD0A95284C03031D9428023055
:10012000EC006C08CC008528CC01BD01C101420364
:10013000031DC22806303E02031CC02864303E0264
:100140000318C0284C03031DAE285008863194269E
:1001500080312000EC006C08D000BA2802304C0638
:10016000031DC0284F088531042580312000EC0094
:100170006C08CF000830EC006C08CB00CD01CD0A34
:10018000BE01C2014303031DED2806303F02031CDC
:10019000EB2864303F020318EB284C03031DD928D9
:1001A00050088731192780312000EC006C08D000FE
:1001B000E52802304C06031DEB284F0885312D251C
:1001C00080312000EC006C08CF000830EC006C0897
:1001D000CB00CD01CD0ABF01C3014403031D062995
:1001E00006304002031C042964304002031804292D
:1001F0004F08EC006C08E50050088631622680311B
:100200002000CC01CD01CD0AC001C4014C08031D62
:1002100058294D03031D6028E1014E30EC006C08A5
:10022000E2000930E3000030E40068308331B62397
:10023000803120005008EC000430EC36890B1D2979
:100240006C080339003E840090300318013E85009D
:100250000008ED006D08C50050080F39003E84000D
:1002600090300318013E85000008EC006C08C600C1
:100270004F08EC000430EC36890B3B296C080F3931
:10028000003E840090300318013E85000008ED0018
:100290006D08C7004F080F39003E840090300318E6
:1002A000013E85000008EC006C08C800CD01602804
:1002B0004D03031D602822008C1720005008EC001D
:1002C0000430EC36890B61296C080339003E840048
:1002D00090300318013E85000008ED006D08C50050
:1002E00050080F39003E840090300318013E85000D
:1002F0000008EC006C08C6004F08EC000430EC3637
:10030000890B7F296C080F39003E84009030031858
:10031000013E85000008ED006D08C7004F080F3949
:10032000003E840090300318013E85000008EC0078
:100330006C08C8004C03031D9F294614562902303F
:100340004C06031D5629481456290330F000700846
:10035000FC057C08453E86008701010822008F00CD
:10036000BD298C119014D32990108E14D3298E108E
:100370000C16D3290C128C15D3297C08F000F1013E
:100380007108003A0319C529D3297008003A0319E6
:10039000B129013A0319B429033A0319B729013ADB
:1003A0000319BA29D3290130F0007008FC07200096
:1003B00041080319E329C8303D020318E32901303D
:1003C000F0007008BD0742080319EE29C8303E024C
:1003D0000318EE290130F0007008BE074308031926
:1003E000F929C8303F020318F9290130F0007008DC
:1003F000BF07440803190800C8304002031808006A
:100400000130F0007008C00708007E1C092A823104
:10041000572A8F319B2782310318182A3C2A8F31A3
:10042000632708008F316B2708008F317B27080076
:1004300020003A08D8005808E0001130203E86001D
:100440008701413F8A00403F0A0082312000D900E5
:10045000DA015A08003A03192E2A152A5908013AD6
:100460000319152A033A03190F2A013A0319122A0C
:10047000073A0319152A152A2000A0110230203E40
:1004800086008701403F84008501810A00088F3182
:100490002627823101302000A3020030A43B23082C
:1004A0002404031D552A06300800033008008F314C
:1004B000532782310318662A892A8E31CB260800F9
:1004C0008E31CF2608008E31D726080020003A084A
:1004D000F0007008D8001130203E86008701413FAF
:1004E0008A00403F0A008231F100F2017208003AAE
:1004F00003197B2A632A7108013A0319632A033A14
:1005000003195D2A013A0319602A073A0319632A7D
:10051000632A2000A0110230203E86008701403F60
:1005200084008501810A00088E31F726823101306E
:100530002000A3020030A43B23082404031DA22AA8
:1005400006300800033008007E1CA82A8331362BB1
:100550008E31BD2682312000D70022088600870117
:10056000570881000130D7005708A2070130A302C5
:100570000030A43B230824040319C22A8E31EB2641
:10058000053008002015CA2A8F31932708008F31C3
:100590008B2708003708D7005708E0000B30203EB3
:1005A00086008701413F8A00403F0A0082312000D7
:1005B000D800D9015908003A0319DF2AC72A580878
:1005C000013A0319C72A033A0319C42A013A031945
:1005D000C42A073A0319C72AC72A08002000DA00EC
:1005E000DB01DB0AA018342B5A08D9005908A100F6
:1005F0002010A014A0110E30D9005908A900F43021
:10060000A7000130A80020151430AB000F30AC005B
:10061000B7011430AD000F30AE00B8011430AF0098
:100620000F30B000B9011430B1000F30B200BA0180
:100630001A30B3000F30B400BB018F31D52782319F
:100640008E31AB26823196302000D7000E30D80094
:100650008F312C278231B0302000D7000430D800F1
:100660008F3132272000DB015B0808008E31A22683
:100670008331F00020002208860087017008810085
:100680000130F0007008A2070130A3020030A43B43
:10069000230824040319502B8E31C326053008008B
:1006A0002015582B8E31E32608008E31DF260800F6
:1006B0003708F0007008D8000B30203E8600870114
:1006C000413F8A00403F0A008331F100F201720885
:1006D000003A03196C2B552B7108013A0319552B5D
:1006E000033A0319522B013A0319522B073A031903
:1006F000552B552B080002302000EB003830EA0063
:10070000AD30890B812BEA0B812BEB0B812B200069
:10071000E1014E30EA006A08E2000930E3000030EF
:10072000E40068308331B62383312000CE1F0800F7
:10073000CE01CF01D001D101D201D20AD301D30A17
:10074000D401D40A1930EA006A08D5001030EA0052
:100750006A08D6004E30EA006A08E1000930E2007B
:100760000030E30068308531552508002000E600A0
:100770006208E5006508E9006408E8006308E7002E
:10078000200066088231EE228331003A0319C02B23
:1007900029302000DC000630DD006730E500650808
:1007A000DE008731B127833101302000D7000030CF
:1007B000D800613087318827833120302000DC0069
:1007C0000F30DD00DE018731A42783318E31F3261F
:1007D0008331873103278331013A031D0800E92B58
:1007E0007E1CF42B8431252C20002015012C8F3108
:1007F000732708008E31C026033008008F317B2715
:1008000008003708D7005708E0000B30203E86006C
:100810008701413F8A00403F0A0084312000D80010
:10082000D9015908003A0319162CFE2B5808013A31
:100830000319FE2B033A0319F72B013A0319F72B7F
:10084000073A0319FA2BFE2B080020002015322C42
:100850008E31D32608008E31A526033008008E3154
:10086000D72608003708F0007008D8000B30203E6B
:1008700086008701413F8A00403F0A008431F10031
:10088000F2017208003A0319462C2F2C7108013A24
:1008900003192F2C033A0319282C013A0319282C89
:1008A000073A03192B2C2F2C08007E1C592C84315D
:1008B000DA2C2000A0110230D7005708AA00662CBD
:1008C0008F31732708008F317B2708003908D70044
:1008D0005708E0000F30203E86008701413F8A0024
:1008E000403F0A0084312000D800D9015908003A5D
:1008F00003197B2C632C5808023A0319602C013A27
:100900000319602C632C0800220090018F018C01D8
:100910008D018E010D302100900067308C00FF307A
:100920008D00FD308E008F0123008F0120308D005F
:100930000530900027308C00240090018D012100AB
:10094000951722009D0127001612151214168B30E0
:100950002000D7000E30D8008F3108278B150800F3
:100960007E1CB42C85317B2D8E31AB26843120004A
:10097000A01DC42C8F319B278431031CC42C0F3045
:100980002000DB005B08A90020002908DB00DC0157
:10099000DB35DC0DEA305B07840085305C3D85008B
:1009A000013F8A00003F0A0084312000DD005D081D
:1009B000A90008002000A0110230F0007008AA0071
:1009C000E72C8E31D32608008E31D726080039084F
:1009D000F0007008D8000F30203E86008701413FAC
:1009E0008A00403F0A008431F100F2017208003AA7
:1009F0000319FB2CE42C7108023A0319E12C013A8B
:100A00000319E12CE42C08002000D7000930570618
:100A1000031D0C2D1030080019305706031D122D30
:100A20002030080029305706031D182D30300800EB
:100A300039305706031D1E2D403008004930570637
:100A4000031D242D5030080059305706031D2A2D50
:100A5000003008005708013E08002000D700570862
:100A6000031D342D5930080010305706031D3A2D50
:100A70000930080020305706031D402D19300800AA
:100A800030305706031D462D2930080040305706E8
:100A9000031D4C2D3930080050305706031D522DD0
:100AA000493008005708FF3E08002000E4002000FD
:100AB00064088231EE228531003A0319572D200057
:100AC0006308D8006208D70061088731882785311C
:100AD00020302000DC000F30DD00DE018731A4274C
:100AE00085318E31F3268531873103278531013AEF
:100AF000031D0800742D8E31A82685312000A01D0D
:100B00008B2D8F3153278531031C8B2D0F30F30034
:100B100073082000A90020002908F300F401F33530
:100B2000F40DEA30730784008530743D8500013F81
:100B30008A00003F0A008531F50075082000A900F1
:100B400008002000DB00570858040319B82D5B3556
:100B50002B3E860087015708C03F5808C13F5908FF
:100B6000DA005B08373E860087015A0881000800DA
:100B70005B352B3E860087011430C03F0F30C13FEC
:100B80005B08373E8600870181010800F400700889
:100B900071040319DC2D74352B3E86008701700823
:100BA000C03F7108C13F7208F3007408373E8600E9
:100BB000870173088100080074352B3E8600870189
:100BC0001430C03F0F30C13F7408373E86008701A4
:100BD00081010800A4340F34D8340734EA340F34C8
:100BE00005340234A4340234C1340F34F0340334F5
:100BF00063340F346B340F3473340F347B340F345D
:100C000083340F348B340F3493340F34DF340F3488
:100C1000553404342000DF00E001E00A2018262EBD
:100C20002014E0015F080319182EA901A90A1C2E3F
:100C30000230DE005E08A9008E31B12686318F3188
:100C4000CB2786310318262E8731F0272000600835
:100C500008007E1C2D2E86317C2E20006008860028
:100C60008701403FD700413FD8006008023E860020
:100C70008701010887318827863100302000DC0099
:100C8000DD00DE018731B1270230080020004C086A
:100C9000031D582E031022008C1F0314031C532E17
:100CA00022008C17552E22008C132000CD01CD0A76
:100CB0004B08031908000130CB024B08031D080044
:100CC000CC0108002000E700CE01CF0165087F3984
:100CD000E6006608D00067083F39E6006608D100E4
:100CE0004E30E6006608E1000430E2000030E30028
:100CF0006830853155250800200058088600870196
:100D0000403FF000413FF1005808023E8600870155
:100D100001088731962786310030F500F600F7018B
:100D20008731BE27023008002000D700093057065F
:100D3000031D9C2E1030080019305706031DA22EEB
:100D40002030080023305706031DA82E003008006D
:100D50005708013E08007E1CAF2E8731442F023019
:100D60002000D7000030D8006008873188278631FE
:100D700000302000DC00DD00DE018731B1270230C9
:100D800008007E1CC52E8731552F01302000D7006A
:100D90000030D80060088731882786310030200075
:100DA000DC00DD00DE018731B127023008007E1C47
:100DB000DB2E8731662F01302000D7000030D800AD
:100DC000600887318827863100302000DC00DD0094
:100DD000DE018731B127043008007E1CF12E8731F7
:100DE000772F02302000D7000030D800600887310C
:100DF0008827863100302000DC00DD00DE018731ED
:100E0000B127043008002000D801D80A2018172F75
:100E1000A010FF30D7005708A1008E31AB268731D4
:100E20008E31AE2620002A08D7005708D80058086F
:100E300008002000D7005708031D202F233008008A
:100E400010305706031D262F0930080020305706A2
:100E5000031D2C2F193008005708FF3E0800210001
:100E60001508C0391738950083302000950083306D
:100E7000D9005908FD000B118B168C30D7000E30AD
:100E8000D8008F310E2708000230F0000030F1004A
:100E9000200058088731962787310030F500F6008A
:100EA000F7018731BE27023008000130F000003022
:100EB000F100200058088731962787310030F5006F
:100EC000F600F7018731BE27023008000130F0003C
:100ED0000030F10020005808873196278731003014
:100EE000F500F600F7018731BE2704300800023014
:100EF000F0000030F1002000580887319627873134
:100F00000030F500F600F7018731BE2704300800F5
:100F10002000DA00201D08005A08D9005908A20054
:100F20005808A4005708A30020110800F30020006F
:100F3000201D08007308F2007208A2007108A400C6
:100F40007008A3002011080020005D08D8005C088C
:100F5000D7005E08DF005F08D90002308531A12587
:100F6000080020005D08D8005C08D7005E08DF009C
:100F70005F08D90000308531A12508007608F1000E
:100F80007508F00077082000D7005708F2000030FD
:100F90008531C625080020006E086F040319D52F7F
:100FA0006F088A006E080A008731270016120800B1
:100FB0007E1CDC2F8F315B2F2000A0150314210D28
:100FC0008F312627053008008431842487318F3102
:100FD000B72787318E31E726873187312F270800E1
:100FE0002000201C080000308F31F5278731843124
:100FF000B0248731F02F20002010AA010E30080005
:101D16000800080008000800013008000530080027
:101D26002000921108008E31932608002400961494
:101D36000800240016150800240096150800240043
:101D460011080800200091150800200091110800D4
:101D5600200091110800210091110800240016149A
:101D66000800240096140800240016150800240014
:101D76009615080024001108080020009115080097
:101D86002400961216160800240096161616080049
:101D96008E319926013008008E31992602300800CE
:101DA6008E319926013008008E319C2600300800BD
:101DB6008E31C326053008008E31C7260A3008004A
:101DC6008E31C7260930080016302100970008001A
:101DD60024009612161608002400961616160800F9
:101DE600003086310A260800F000700824009100B1
:101DF60008002700161E08008731CB2708002000A0
:101E0600A0118E319F260430080020005808EF00EC
:101E16005708EE00080020005808F9005708F80097
:101E260008007E1C182F8E318F2E013008007E1C74
:101E36001E2F8E31912E053008007E1C242F8031F6
:101E46000228033008002000D7005708240091001C
:101E5600080020005808FB005708FA000800200078
:101E66005808CA005708C9000800640080010131FB
:101E7600890B392F00340B117D08200095008F3116
:101E8600AD2708008E318D2620002010AA010E30C5
:101E960008002000A01521358E31F72603300800F2
:101EA6002400160E890C890C0139F000700C08000C
:101EB6002000A0150314210D8E31F72605300800E9
:101EC6007E1C672F8E31CB2E8E31B4260130080052
:101ED6007E1C6F2F8E31CF2E8E31B4260230080035
:101EE6007E1C772F8E31D32E8E31B426013008001A
:101EF6007E1C7F2F8E31D72E8E31B72600300800FC
:101F06007E1C872F8E31DB2E8E31EB2605300800A6
:101F16007E1C8F2F8E31DF2E8E31EF260A30080081
:101F26007E1C972F8E31E32E8E31EF260930080066
:101F36002400160E890C890C01392000D700570C95
:101F460008007E1CA82F8731FB2F20002010AA0135
:101F56000E300800780879040319080079088A0009
:101F660078080A008F310800703021009900980126
:101F76002200960121001A1B0800BD2F7E1CC52FCA
:101F86008F31022F2000A0118E31BA2604300800AE
:101F96002100110C2000D700D70C570C0139D800AE
:101FA600580C08002400951A080094012830950062
:101FB60096014F30920008007E1CE32F8F31452F8B
:101FC6008E318E2620002010AA010E3008007E1CBD
:101FD600EE2F8F314C2F2000A01521358F3126276B
:101FE600033008002000911908002000911908000C
:101FF600A0300032890BFC2FF82FFC346034DA3421
:0E200600F2346634B634BE34E034FE34F634C0
:020000040001F9
:04000E00E4FFFFFF0D
:00000001FF
